{
  "contracts/LiquidityPool.sol": {
    "LiquidityPool": {
      "abi": [
        {
          "inputs": [],
          "stateMutability": "nonpayable",
          "type": "constructor"
        },
        {
          "inputs": [
            {
              "internalType": "address",
              "name": "",
              "type": "address"
            }
          ],
          "name": "allInvestors",
          "outputs": [
            {
              "internalType": "address",
              "name": "investor",
              "type": "address"
            },
            {
              "internalType": "uint256",
              "name": "timestampOfDeposit",
              "type": "uint256"
            },
            {
              "internalType": "uint256",
              "name": "amountOfMoney",
              "type": "uint256"
            }
          ],
          "stateMutability": "view",
          "type": "function"
        },
        {
          "inputs": [
            {
              "internalType": "uint256",
              "name": "cdiInPercentualPoints",
              "type": "uint256"
            }
          ],
          "name": "changeCDIinterestRate",
          "outputs": [],
          "stateMutability": "nonpayable",
          "type": "function"
        },
        {
          "inputs": [],
          "name": "checkContractBalance",
          "outputs": [
            {
              "internalType": "uint256",
              "name": "",
              "type": "uint256"
            }
          ],
          "stateMutability": "view",
          "type": "function"
        },
        {
          "inputs": [],
          "name": "checkMyBalance",
          "outputs": [
            {
              "internalType": "uint256",
              "name": "",
              "type": "uint256"
            }
          ],
          "stateMutability": "view",
          "type": "function"
        },
        {
          "inputs": [],
          "name": "contractOwner",
          "outputs": [
            {
              "internalType": "address",
              "name": "",
              "type": "address"
            }
          ],
          "stateMutability": "view",
          "type": "function"
        },
        {
          "inputs": [],
          "name": "dailyCDIinPoints",
          "outputs": [
            {
              "internalType": "uint256",
              "name": "",
              "type": "uint256"
            }
          ],
          "stateMutability": "view",
          "type": "function"
        },
        {
          "inputs": [
            {
              "internalType": "uint256",
              "name": "valueEther",
              "type": "uint256"
            }
          ],
          "name": "etherToWei",
          "outputs": [
            {
              "internalType": "uint256",
              "name": "",
              "type": "uint256"
            }
          ],
          "stateMutability": "pure",
          "type": "function"
        },
        {
          "inputs": [
            {
              "internalType": "uint256",
              "name": "timestampOfDeposit",
              "type": "uint256"
            }
          ],
          "name": "getInterestSince",
          "outputs": [
            {
              "internalType": "int128",
              "name": "",
              "type": "int128"
            }
          ],
          "stateMutability": "view",
          "type": "function"
        },
        {
          "inputs": [],
          "name": "getMoneyBackDebug",
          "outputs": [],
          "stateMutability": "nonpayable",
          "type": "function"
        },
        {
          "inputs": [],
          "name": "invest",
          "outputs": [],
          "stateMutability": "payable",
          "type": "function"
        },
        {
          "inputs": [
            {
              "internalType": "contract IERC20",
              "name": "token",
              "type": "address"
            },
            {
              "internalType": "address",
              "name": "to",
              "type": "address"
            },
            {
              "internalType": "uint256",
              "name": "amount",
              "type": "uint256"
            }
          ],
          "name": "transferERC20",
          "outputs": [],
          "stateMutability": "nonpayable",
          "type": "function"
        },
        {
          "inputs": [
            {
              "internalType": "uint256",
              "name": "valueWei",
              "type": "uint256"
            }
          ],
          "name": "weiToEther",
          "outputs": [
            {
              "internalType": "uint256",
              "name": "",
              "type": "uint256"
            }
          ],
          "stateMutability": "pure",
          "type": "function"
        },
        {
          "inputs": [
            {
              "internalType": "uint256",
              "name": "requestedValue",
              "type": "uint256"
            }
          ],
          "name": "withdrawTokens",
          "outputs": [],
          "stateMutability": "nonpayable",
          "type": "function"
        }
      ],
      "evm": {
        "bytecode": {
          "linkReferences": {},
          "object": "608060405261bf8d6001556201518060035534801561001d57600080fd5b50336000806101000a81548173ffffffffffffffffffffffffffffffffffffffff021916908373ffffffffffffffffffffffffffffffffffffffff1602179055506113d08061006d6000396000f3fe6080604052600436106100c25760003560e01c8063ce606ee01161007f578063d8916bb911610059578063d8916bb91461027c578063e8b5e51f146102b9578063ebdf983a146102c3578063f22f0062146102da576100c2565b8063ce606ee0146101d5578063cea9441014610200578063d0eff8911461023f576100c2565b80630a2d8c75146100c7578063315a095d1461010457806350312c9e1461012d57806396a2e687146101585780639db5dbe414610181578063b37d61f8146101aa575b600080fd5b3480156100d357600080fd5b506100ee60048036038101906100e99190610fb7565b610305565b6040516100fb91906110d4565b60405180910390f35b34801561011057600080fd5b5061012b60048036038101906101269190610fb7565b61036c565b005b34801561013957600080fd5b506101426104af565b60405161014f919061110f565b60405180910390f35b34801561016457600080fd5b5061017f600480360381019061017a9190610fb7565b6104b7565b005b34801561018d57600080fd5b506101a860048036038101906101a39190610f68565b610519565b005b3480156101b657600080fd5b506101bf6106d5565b6040516101cc919061110f565b60405180910390f35b3480156101e157600080fd5b506101ea610724565b6040516101f79190611059565b60405180910390f35b34801561020c57600080fd5b5061022760048036038101906102229190610f16565b610748565b6040516102369392919061109d565b60405180910390f35b34801561024b57600080fd5b5061026660048036038101906102619190610fb7565b610792565b604051610273919061110f565b60405180910390f35b34801561028857600080fd5b506102a3600480360381019061029e9190610fb7565b6107af565b6040516102b0919061110f565b60405180910390f35b6102c16107cc565b005b3480156102cf57600080fd5b506102d8610983565b005b3480156102e657600080fd5b506102ef6109cc565b6040516102fc919061110f565b60405180910390f35b60008042905060008382610319919061121c565b9050600060fc9050600061035e61035861033360016109d2565b6103536103416001546109d2565b61034e6305f5e1006109d2565b6109f5565b610aa5565b83610b0c565b905080945050505050919050565b6000600260003373ffffffffffffffffffffffffffffffffffffffff1673ffffffffffffffffffffffffffffffffffffffff168152602001908152602001600020905060008160020154116103c057600080fd5b806002015482106103d057600080fd5b60006103df8260010154610305565b905060006103f083600201546109d2565b905060006104066104018484610e21565b610e8c565b67ffffffffffffffff16905060008582610420919061121c565b905060008560000160009054906101000a900473ffffffffffffffffffffffffffffffffffffffff16905060008173ffffffffffffffffffffffffffffffffffffffff166108fc6104708a6107af565b9081150290604051600060405180830381858888f19350505050905080156104a5578287600201819055504287600101819055505b5050505050505050565b600047905090565b60008054906101000a900473ffffffffffffffffffffffffffffffffffffffff1673ffffffffffffffffffffffffffffffffffffffff163373ffffffffffffffffffffffffffffffffffffffff161461050f57600080fd5b8060018190555050565b60008054906101000a900473ffffffffffffffffffffffffffffffffffffffff1673ffffffffffffffffffffffffffffffffffffffff163373ffffffffffffffffffffffffffffffffffffffff161461057157600080fd5b60008373ffffffffffffffffffffffffffffffffffffffff166370a08231306040518263ffffffff1660e01b81526004016105ac9190611059565b60206040518083038186803b1580156105c457600080fd5b505afa1580156105d8573d6000803e3d6000fd5b505050506040513d601f19601f820116820180604052508101906105fc9190610fe0565b905080821115610641576040517f08c379a0000000000000000000000000000000000000000000000000000000008152600401610638906110ef565b60405180910390fd5b8373ffffffffffffffffffffffffffffffffffffffff1663a9059cbb84846040518363ffffffff1660e01b815260040161067c929190611074565b602060405180830381600087803b15801561069657600080fd5b505af11580156106aa573d6000803e3d6000fd5b505050506040513d601f19601f820116820180604052508101906106ce9190610f3f565b5050505050565b600080600260003373ffffffffffffffffffffffffffffffffffffffff1673ffffffffffffffffffffffffffffffffffffffff1681526020019081526020016000206002015490508091505090565b60008054906101000a900473ffffffffffffffffffffffffffffffffffffffff1681565b60026020528060005260406000206000915090508060000160009054906101000a900473ffffffffffffffffffffffffffffffffffffffff16908060010154908060020154905083565b6000670de0b6b3a7640000826107a89190611191565b9050919050565b6000670de0b6b3a7640000826107c591906111c2565b9050919050565b6000600260003373ffffffffffffffffffffffffffffffffffffffff1673ffffffffffffffffffffffffffffffffffffffff1681526020019081526020016000206040518060600160405290816000820160009054906101000a900473ffffffffffffffffffffffffffffffffffffffff1673ffffffffffffffffffffffffffffffffffffffff1673ffffffffffffffffffffffffffffffffffffffff168152602001600182015481526020016002820154815250509050600080826020015111156108d55760006108a18360200151610305565b905060006108b284604001516109d2565b90506108c66108c18383610e21565b610e8c565b67ffffffffffffffff16925050505b60008190506000600260003373ffffffffffffffffffffffffffffffffffffffff1673ffffffffffffffffffffffffffffffffffffffff1681526020019081526020016000209050338160000160006101000a81548173ffffffffffffffffffffffffffffffffffffffff021916908373ffffffffffffffffffffffffffffffffffffffff1602179055504281600101819055508134610975919061113b565b816002018190555050505050565b3373ffffffffffffffffffffffffffffffffffffffff166108fc479081150290604051600060405180830381858888f193505050501580156109c9573d6000803e3d6000fd5b50565b60015481565b6000677fffffffffffffff8211156109e957600080fd5b604082901b9050919050565b60008082600f0b1415610a0757600080fd5b600082600f0b604085600f0b901b81610a49577f4e487b7100000000000000000000000000000000000000000000000000000000600052601260045260246000fd5b0590507fffffffffffffffffffffffffffffffff80000000000000000000000000000000600f0b8112158015610a9257506f7fffffffffffffffffffffffffffffff600f0b8113155b610a9b57600080fd5b8091505092915050565b60008082600f0b84600f0b0190507fffffffffffffffffffffffffffffffff80000000000000000000000000000000600f0b8112158015610af957506f7fffffffffffffffffffffffffffffff600f0b8113155b610b0257600080fd5b8091505092915050565b600080600084600f0b128015610b2457506001808416145b905060008085600f0b12610b385784610b3d565b846000035b6fffffffffffffffffffffffffffffffff16905060007001000000000000000000000000000000009050680100000000000000008211610c1757603f82901b91505b60008514610c0b5760006001861614610b9c57607f828202901c90505b607f828302901c915060006002861614610bba57607f828202901c90505b607f828302901c915060006004861614610bd857607f828202901c90505b607f828302901c915060006008861614610bf657607f828202901c90505b607f828302901c9150600485901c9450610b7f565b604081901c9050610db1565b6000603f90506c01000000000000000000000000831015610c4057602083901b92506020810390505b6e010000000000000000000000000000831015610c6557601083901b92506010810390505b6f01000000000000000000000000000000831015610c8b57600883901b92506008810390505b6f10000000000000000000000000000000831015610cb157600483901b92506004810390505b6f40000000000000000000000000000000831015610cd757600283901b92506002810390505b6f80000000000000000000000000000000831015610cfd57600183901b92506001810390505b60005b60008714610d985760408210610d1557600080fd5b60006001881614610d5657607f848402901c92508181019050700100000000000000000000000000000000831115610d5557600183901c92506001810190505b5b607f848502901c9350600182901b91507001000000000000000000000000000000008410610d8c57600184901c93506001820191505b600187901c9650610d00565b60408110610da557600080fd5b8060400383901c925050505b600083610dbe5781610dc3565b816000035b90507fffffffffffffffffffffffffffffffff80000000000000000000000000000000600f0b8112158015610e0b57506f7fffffffffffffffffffffffffffffff600f0b8113155b610e1457600080fd5b8094505050505092915050565b600080604083600f0b85600f0b02901d90507fffffffffffffffffffffffffffffffff80000000000000000000000000000000600f0b8112158015610e7957506f7fffffffffffffffffffffffffffffff600f0b8113155b610e8257600080fd5b8091505092915050565b60008082600f0b1215610e9e57600080fd5b604082600f0b901d9050919050565b600081359050610ebc8161133e565b92915050565b600081519050610ed181611355565b92915050565b600081359050610ee68161136c565b92915050565b600081359050610efb81611383565b92915050565b600081519050610f1081611383565b92915050565b600060208284031215610f2857600080fd5b6000610f3684828501610ead565b91505092915050565b600060208284031215610f5157600080fd5b6000610f5f84828501610ec2565b91505092915050565b600080600060608486031215610f7d57600080fd5b6000610f8b86828701610ed7565b9350506020610f9c86828701610ead565b9250506040610fad86828701610eec565b9150509250925092565b600060208284031215610fc957600080fd5b6000610fd784828501610eec565b91505092915050565b600060208284031215610ff257600080fd5b600061100084828501610f01565b91505092915050565b61101281611250565b82525050565b61102181611280565b82525050565b6000611034600e8361112a565b915061103f82611315565b602082019050919050565b611053816112ad565b82525050565b600060208201905061106e6000830184611009565b92915050565b60006040820190506110896000830185611009565b611096602083018461104a565b9392505050565b60006060820190506110b26000830186611009565b6110bf602083018561104a565b6110cc604083018461104a565b949350505050565b60006020820190506110e96000830184611018565b92915050565b6000602082019050818103600083015261110881611027565b9050919050565b6000602082019050611124600083018461104a565b92915050565b600082825260208201905092915050565b6000611146826112ad565b9150611151836112ad565b9250827fffffffffffffffffffffffffffffffffffffffffffffffffffffffffffffffff03821115611186576111856112b7565b5b828201905092915050565b600061119c826112ad565b91506111a7836112ad565b9250826111b7576111b66112e6565b5b828204905092915050565b60006111cd826112ad565b91506111d8836112ad565b9250817fffffffffffffffffffffffffffffffffffffffffffffffffffffffffffffffff0483118215151615611211576112106112b7565b5b828202905092915050565b6000611227826112ad565b9150611232836112ad565b925082821015611245576112446112b7565b5b828203905092915050565b600061125b8261128d565b9050919050565b60008115159050919050565b600061127982611250565b9050919050565b600081600f0b9050919050565b600073ffffffffffffffffffffffffffffffffffffffff82169050919050565b6000819050919050565b7f4e487b7100000000000000000000000000000000000000000000000000000000600052601160045260246000fd5b7f4e487b7100000000000000000000000000000000000000000000000000000000600052601260045260246000fd5b7f62616c616e6365206973206c6f77000000000000000000000000000000000000600082015250565b61134781611250565b811461135257600080fd5b50565b61135e81611262565b811461136957600080fd5b50565b6113758161126e565b811461138057600080fd5b50565b61138c816112ad565b811461139757600080fd5b5056fea26469706673582212202c3cc04daa2611b3a191e4e4b365530e099114c3fe3c4372a6d6b0b13c00ea9e64736f6c63430008010033",
          "opcodes": "PUSH1 0x80 PUSH1 0x40 MSTORE PUSH2 0xBF8D PUSH1 0x1 SSTORE PUSH3 0x15180 PUSH1 0x3 SSTORE CALLVALUE DUP1 ISZERO PUSH2 0x1D JUMPI PUSH1 0x0 DUP1 REVERT JUMPDEST POP CALLER PUSH1 0x0 DUP1 PUSH2 0x100 EXP DUP2 SLOAD DUP2 PUSH20 0xFFFFFFFFFFFFFFFFFFFFFFFFFFFFFFFFFFFFFFFF MUL NOT AND SWAP1 DUP4 PUSH20 0xFFFFFFFFFFFFFFFFFFFFFFFFFFFFFFFFFFFFFFFF AND MUL OR SWAP1 SSTORE POP PUSH2 0x13D0 DUP1 PUSH2 0x6D PUSH1 0x0 CODECOPY PUSH1 0x0 RETURN INVALID PUSH1 0x80 PUSH1 0x40 MSTORE PUSH1 0x4 CALLDATASIZE LT PUSH2 0xC2 JUMPI PUSH1 0x0 CALLDATALOAD PUSH1 0xE0 SHR DUP1 PUSH4 0xCE606EE0 GT PUSH2 0x7F JUMPI DUP1 PUSH4 0xD8916BB9 GT PUSH2 0x59 JUMPI DUP1 PUSH4 0xD8916BB9 EQ PUSH2 0x27C JUMPI DUP1 PUSH4 0xE8B5E51F EQ PUSH2 0x2B9 JUMPI DUP1 PUSH4 0xEBDF983A EQ PUSH2 0x2C3 JUMPI DUP1 PUSH4 0xF22F0062 EQ PUSH2 0x2DA JUMPI PUSH2 0xC2 JUMP JUMPDEST DUP1 PUSH4 0xCE606EE0 EQ PUSH2 0x1D5 JUMPI DUP1 PUSH4 0xCEA94410 EQ PUSH2 0x200 JUMPI DUP1 PUSH4 0xD0EFF891 EQ PUSH2 0x23F JUMPI PUSH2 0xC2 JUMP JUMPDEST DUP1 PUSH4 0xA2D8C75 EQ PUSH2 0xC7 JUMPI DUP1 PUSH4 0x315A095D EQ PUSH2 0x104 JUMPI DUP1 PUSH4 0x50312C9E EQ PUSH2 0x12D JUMPI DUP1 PUSH4 0x96A2E687 EQ PUSH2 0x158 JUMPI DUP1 PUSH4 0x9DB5DBE4 EQ PUSH2 0x181 JUMPI DUP1 PUSH4 0xB37D61F8 EQ PUSH2 0x1AA JUMPI JUMPDEST PUSH1 0x0 DUP1 REVERT JUMPDEST CALLVALUE DUP1 ISZERO PUSH2 0xD3 JUMPI PUSH1 0x0 DUP1 REVERT JUMPDEST POP PUSH2 0xEE PUSH1 0x4 DUP1 CALLDATASIZE SUB DUP2 ADD SWAP1 PUSH2 0xE9 SWAP2 SWAP1 PUSH2 0xFB7 JUMP JUMPDEST PUSH2 0x305 JUMP JUMPDEST PUSH1 0x40 MLOAD PUSH2 0xFB SWAP2 SWAP1 PUSH2 0x10D4 JUMP JUMPDEST PUSH1 0x40 MLOAD DUP1 SWAP2 SUB SWAP1 RETURN JUMPDEST CALLVALUE DUP1 ISZERO PUSH2 0x110 JUMPI PUSH1 0x0 DUP1 REVERT JUMPDEST POP PUSH2 0x12B PUSH1 0x4 DUP1 CALLDATASIZE SUB DUP2 ADD SWAP1 PUSH2 0x126 SWAP2 SWAP1 PUSH2 0xFB7 JUMP JUMPDEST PUSH2 0x36C JUMP JUMPDEST STOP JUMPDEST CALLVALUE DUP1 ISZERO PUSH2 0x139 JUMPI PUSH1 0x0 DUP1 REVERT JUMPDEST POP PUSH2 0x142 PUSH2 0x4AF JUMP JUMPDEST PUSH1 0x40 MLOAD PUSH2 0x14F SWAP2 SWAP1 PUSH2 0x110F JUMP JUMPDEST PUSH1 0x40 MLOAD DUP1 SWAP2 SUB SWAP1 RETURN JUMPDEST CALLVALUE DUP1 ISZERO PUSH2 0x164 JUMPI PUSH1 0x0 DUP1 REVERT JUMPDEST POP PUSH2 0x17F PUSH1 0x4 DUP1 CALLDATASIZE SUB DUP2 ADD SWAP1 PUSH2 0x17A SWAP2 SWAP1 PUSH2 0xFB7 JUMP JUMPDEST PUSH2 0x4B7 JUMP JUMPDEST STOP JUMPDEST CALLVALUE DUP1 ISZERO PUSH2 0x18D JUMPI PUSH1 0x0 DUP1 REVERT JUMPDEST POP PUSH2 0x1A8 PUSH1 0x4 DUP1 CALLDATASIZE SUB DUP2 ADD SWAP1 PUSH2 0x1A3 SWAP2 SWAP1 PUSH2 0xF68 JUMP JUMPDEST PUSH2 0x519 JUMP JUMPDEST STOP JUMPDEST CALLVALUE DUP1 ISZERO PUSH2 0x1B6 JUMPI PUSH1 0x0 DUP1 REVERT JUMPDEST POP PUSH2 0x1BF PUSH2 0x6D5 JUMP JUMPDEST PUSH1 0x40 MLOAD PUSH2 0x1CC SWAP2 SWAP1 PUSH2 0x110F JUMP JUMPDEST PUSH1 0x40 MLOAD DUP1 SWAP2 SUB SWAP1 RETURN JUMPDEST CALLVALUE DUP1 ISZERO PUSH2 0x1E1 JUMPI PUSH1 0x0 DUP1 REVERT JUMPDEST POP PUSH2 0x1EA PUSH2 0x724 JUMP JUMPDEST PUSH1 0x40 MLOAD PUSH2 0x1F7 SWAP2 SWAP1 PUSH2 0x1059 JUMP JUMPDEST PUSH1 0x40 MLOAD DUP1 SWAP2 SUB SWAP1 RETURN JUMPDEST CALLVALUE DUP1 ISZERO PUSH2 0x20C JUMPI PUSH1 0x0 DUP1 REVERT JUMPDEST POP PUSH2 0x227 PUSH1 0x4 DUP1 CALLDATASIZE SUB DUP2 ADD SWAP1 PUSH2 0x222 SWAP2 SWAP1 PUSH2 0xF16 JUMP JUMPDEST PUSH2 0x748 JUMP JUMPDEST PUSH1 0x40 MLOAD PUSH2 0x236 SWAP4 SWAP3 SWAP2 SWAP1 PUSH2 0x109D JUMP JUMPDEST PUSH1 0x40 MLOAD DUP1 SWAP2 SUB SWAP1 RETURN JUMPDEST CALLVALUE DUP1 ISZERO PUSH2 0x24B JUMPI PUSH1 0x0 DUP1 REVERT JUMPDEST POP PUSH2 0x266 PUSH1 0x4 DUP1 CALLDATASIZE SUB DUP2 ADD SWAP1 PUSH2 0x261 SWAP2 SWAP1 PUSH2 0xFB7 JUMP JUMPDEST PUSH2 0x792 JUMP JUMPDEST PUSH1 0x40 MLOAD PUSH2 0x273 SWAP2 SWAP1 PUSH2 0x110F JUMP JUMPDEST PUSH1 0x40 MLOAD DUP1 SWAP2 SUB SWAP1 RETURN JUMPDEST CALLVALUE DUP1 ISZERO PUSH2 0x288 JUMPI PUSH1 0x0 DUP1 REVERT JUMPDEST POP PUSH2 0x2A3 PUSH1 0x4 DUP1 CALLDATASIZE SUB DUP2 ADD SWAP1 PUSH2 0x29E SWAP2 SWAP1 PUSH2 0xFB7 JUMP JUMPDEST PUSH2 0x7AF JUMP JUMPDEST PUSH1 0x40 MLOAD PUSH2 0x2B0 SWAP2 SWAP1 PUSH2 0x110F JUMP JUMPDEST PUSH1 0x40 MLOAD DUP1 SWAP2 SUB SWAP1 RETURN JUMPDEST PUSH2 0x2C1 PUSH2 0x7CC JUMP JUMPDEST STOP JUMPDEST CALLVALUE DUP1 ISZERO PUSH2 0x2CF JUMPI PUSH1 0x0 DUP1 REVERT JUMPDEST POP PUSH2 0x2D8 PUSH2 0x983 JUMP JUMPDEST STOP JUMPDEST CALLVALUE DUP1 ISZERO PUSH2 0x2E6 JUMPI PUSH1 0x0 DUP1 REVERT JUMPDEST POP PUSH2 0x2EF PUSH2 0x9CC JUMP JUMPDEST PUSH1 0x40 MLOAD PUSH2 0x2FC SWAP2 SWAP1 PUSH2 0x110F JUMP JUMPDEST PUSH1 0x40 MLOAD DUP1 SWAP2 SUB SWAP1 RETURN JUMPDEST PUSH1 0x0 DUP1 TIMESTAMP SWAP1 POP PUSH1 0x0 DUP4 DUP3 PUSH2 0x319 SWAP2 SWAP1 PUSH2 0x121C JUMP JUMPDEST SWAP1 POP PUSH1 0x0 PUSH1 0xFC SWAP1 POP PUSH1 0x0 PUSH2 0x35E PUSH2 0x358 PUSH2 0x333 PUSH1 0x1 PUSH2 0x9D2 JUMP JUMPDEST PUSH2 0x353 PUSH2 0x341 PUSH1 0x1 SLOAD PUSH2 0x9D2 JUMP JUMPDEST PUSH2 0x34E PUSH4 0x5F5E100 PUSH2 0x9D2 JUMP JUMPDEST PUSH2 0x9F5 JUMP JUMPDEST PUSH2 0xAA5 JUMP JUMPDEST DUP4 PUSH2 0xB0C JUMP JUMPDEST SWAP1 POP DUP1 SWAP5 POP POP POP POP POP SWAP2 SWAP1 POP JUMP JUMPDEST PUSH1 0x0 PUSH1 0x2 PUSH1 0x0 CALLER PUSH20 0xFFFFFFFFFFFFFFFFFFFFFFFFFFFFFFFFFFFFFFFF AND PUSH20 0xFFFFFFFFFFFFFFFFFFFFFFFFFFFFFFFFFFFFFFFF AND DUP2 MSTORE PUSH1 0x20 ADD SWAP1 DUP2 MSTORE PUSH1 0x20 ADD PUSH1 0x0 KECCAK256 SWAP1 POP PUSH1 0x0 DUP2 PUSH1 0x2 ADD SLOAD GT PUSH2 0x3C0 JUMPI PUSH1 0x0 DUP1 REVERT JUMPDEST DUP1 PUSH1 0x2 ADD SLOAD DUP3 LT PUSH2 0x3D0 JUMPI PUSH1 0x0 DUP1 REVERT JUMPDEST PUSH1 0x0 PUSH2 0x3DF DUP3 PUSH1 0x1 ADD SLOAD PUSH2 0x305 JUMP JUMPDEST SWAP1 POP PUSH1 0x0 PUSH2 0x3F0 DUP4 PUSH1 0x2 ADD SLOAD PUSH2 0x9D2 JUMP JUMPDEST SWAP1 POP PUSH1 0x0 PUSH2 0x406 PUSH2 0x401 DUP5 DUP5 PUSH2 0xE21 JUMP JUMPDEST PUSH2 0xE8C JUMP JUMPDEST PUSH8 0xFFFFFFFFFFFFFFFF AND SWAP1 POP PUSH1 0x0 DUP6 DUP3 PUSH2 0x420 SWAP2 SWAP1 PUSH2 0x121C JUMP JUMPDEST SWAP1 POP PUSH1 0x0 DUP6 PUSH1 0x0 ADD PUSH1 0x0 SWAP1 SLOAD SWAP1 PUSH2 0x100 EXP SWAP1 DIV PUSH20 0xFFFFFFFFFFFFFFFFFFFFFFFFFFFFFFFFFFFFFFFF AND SWAP1 POP PUSH1 0x0 DUP2 PUSH20 0xFFFFFFFFFFFFFFFFFFFFFFFFFFFFFFFFFFFFFFFF AND PUSH2 0x8FC PUSH2 0x470 DUP11 PUSH2 0x7AF JUMP JUMPDEST SWAP1 DUP2 ISZERO MUL SWAP1 PUSH1 0x40 MLOAD PUSH1 0x0 PUSH1 0x40 MLOAD DUP1 DUP4 SUB DUP2 DUP6 DUP9 DUP9 CALL SWAP4 POP POP POP POP SWAP1 POP DUP1 ISZERO PUSH2 0x4A5 JUMPI DUP3 DUP8 PUSH1 0x2 ADD DUP2 SWAP1 SSTORE POP TIMESTAMP DUP8 PUSH1 0x1 ADD DUP2 SWAP1 SSTORE POP JUMPDEST POP POP POP POP POP POP POP POP JUMP JUMPDEST PUSH1 0x0 SELFBALANCE SWAP1 POP SWAP1 JUMP JUMPDEST PUSH1 0x0 DUP1 SLOAD SWAP1 PUSH2 0x100 EXP SWAP1 DIV PUSH20 0xFFFFFFFFFFFFFFFFFFFFFFFFFFFFFFFFFFFFFFFF AND PUSH20 0xFFFFFFFFFFFFFFFFFFFFFFFFFFFFFFFFFFFFFFFF AND CALLER PUSH20 0xFFFFFFFFFFFFFFFFFFFFFFFFFFFFFFFFFFFFFFFF AND EQ PUSH2 0x50F JUMPI PUSH1 0x0 DUP1 REVERT JUMPDEST DUP1 PUSH1 0x1 DUP2 SWAP1 SSTORE POP POP JUMP JUMPDEST PUSH1 0x0 DUP1 SLOAD SWAP1 PUSH2 0x100 EXP SWAP1 DIV PUSH20 0xFFFFFFFFFFFFFFFFFFFFFFFFFFFFFFFFFFFFFFFF AND PUSH20 0xFFFFFFFFFFFFFFFFFFFFFFFFFFFFFFFFFFFFFFFF AND CALLER PUSH20 0xFFFFFFFFFFFFFFFFFFFFFFFFFFFFFFFFFFFFFFFF AND EQ PUSH2 0x571 JUMPI PUSH1 0x0 DUP1 REVERT JUMPDEST PUSH1 0x0 DUP4 PUSH20 0xFFFFFFFFFFFFFFFFFFFFFFFFFFFFFFFFFFFFFFFF AND PUSH4 0x70A08231 ADDRESS PUSH1 0x40 MLOAD DUP3 PUSH4 0xFFFFFFFF AND PUSH1 0xE0 SHL DUP2 MSTORE PUSH1 0x4 ADD PUSH2 0x5AC SWAP2 SWAP1 PUSH2 0x1059 JUMP JUMPDEST PUSH1 0x20 PUSH1 0x40 MLOAD DUP1 DUP4 SUB DUP2 DUP7 DUP1 EXTCODESIZE ISZERO DUP1 ISZERO PUSH2 0x5C4 JUMPI PUSH1 0x0 DUP1 REVERT JUMPDEST POP GAS STATICCALL ISZERO DUP1 ISZERO PUSH2 0x5D8 JUMPI RETURNDATASIZE PUSH1 0x0 DUP1 RETURNDATACOPY RETURNDATASIZE PUSH1 0x0 REVERT JUMPDEST POP POP POP POP PUSH1 0x40 MLOAD RETURNDATASIZE PUSH1 0x1F NOT PUSH1 0x1F DUP3 ADD AND DUP3 ADD DUP1 PUSH1 0x40 MSTORE POP DUP2 ADD SWAP1 PUSH2 0x5FC SWAP2 SWAP1 PUSH2 0xFE0 JUMP JUMPDEST SWAP1 POP DUP1 DUP3 GT ISZERO PUSH2 0x641 JUMPI PUSH1 0x40 MLOAD PUSH32 0x8C379A000000000000000000000000000000000000000000000000000000000 DUP2 MSTORE PUSH1 0x4 ADD PUSH2 0x638 SWAP1 PUSH2 0x10EF JUMP JUMPDEST PUSH1 0x40 MLOAD DUP1 SWAP2 SUB SWAP1 REVERT JUMPDEST DUP4 PUSH20 0xFFFFFFFFFFFFFFFFFFFFFFFFFFFFFFFFFFFFFFFF AND PUSH4 0xA9059CBB DUP5 DUP5 PUSH1 0x40 MLOAD DUP4 PUSH4 0xFFFFFFFF AND PUSH1 0xE0 SHL DUP2 MSTORE PUSH1 0x4 ADD PUSH2 0x67C SWAP3 SWAP2 SWAP1 PUSH2 0x1074 JUMP JUMPDEST PUSH1 0x20 PUSH1 0x40 MLOAD DUP1 DUP4 SUB DUP2 PUSH1 0x0 DUP8 DUP1 EXTCODESIZE ISZERO DUP1 ISZERO PUSH2 0x696 JUMPI PUSH1 0x0 DUP1 REVERT JUMPDEST POP GAS CALL ISZERO DUP1 ISZERO PUSH2 0x6AA JUMPI RETURNDATASIZE PUSH1 0x0 DUP1 RETURNDATACOPY RETURNDATASIZE PUSH1 0x0 REVERT JUMPDEST POP POP POP POP PUSH1 0x40 MLOAD RETURNDATASIZE PUSH1 0x1F NOT PUSH1 0x1F DUP3 ADD AND DUP3 ADD DUP1 PUSH1 0x40 MSTORE POP DUP2 ADD SWAP1 PUSH2 0x6CE SWAP2 SWAP1 PUSH2 0xF3F JUMP JUMPDEST POP POP POP POP POP JUMP JUMPDEST PUSH1 0x0 DUP1 PUSH1 0x2 PUSH1 0x0 CALLER PUSH20 0xFFFFFFFFFFFFFFFFFFFFFFFFFFFFFFFFFFFFFFFF AND PUSH20 0xFFFFFFFFFFFFFFFFFFFFFFFFFFFFFFFFFFFFFFFF AND DUP2 MSTORE PUSH1 0x20 ADD SWAP1 DUP2 MSTORE PUSH1 0x20 ADD PUSH1 0x0 KECCAK256 PUSH1 0x2 ADD SLOAD SWAP1 POP DUP1 SWAP2 POP POP SWAP1 JUMP JUMPDEST PUSH1 0x0 DUP1 SLOAD SWAP1 PUSH2 0x100 EXP SWAP1 DIV PUSH20 0xFFFFFFFFFFFFFFFFFFFFFFFFFFFFFFFFFFFFFFFF AND DUP2 JUMP JUMPDEST PUSH1 0x2 PUSH1 0x20 MSTORE DUP1 PUSH1 0x0 MSTORE PUSH1 0x40 PUSH1 0x0 KECCAK256 PUSH1 0x0 SWAP2 POP SWAP1 POP DUP1 PUSH1 0x0 ADD PUSH1 0x0 SWAP1 SLOAD SWAP1 PUSH2 0x100 EXP SWAP1 DIV PUSH20 0xFFFFFFFFFFFFFFFFFFFFFFFFFFFFFFFFFFFFFFFF AND SWAP1 DUP1 PUSH1 0x1 ADD SLOAD SWAP1 DUP1 PUSH1 0x2 ADD SLOAD SWAP1 POP DUP4 JUMP JUMPDEST PUSH1 0x0 PUSH8 0xDE0B6B3A7640000 DUP3 PUSH2 0x7A8 SWAP2 SWAP1 PUSH2 0x1191 JUMP JUMPDEST SWAP1 POP SWAP2 SWAP1 POP JUMP JUMPDEST PUSH1 0x0 PUSH8 0xDE0B6B3A7640000 DUP3 PUSH2 0x7C5 SWAP2 SWAP1 PUSH2 0x11C2 JUMP JUMPDEST SWAP1 POP SWAP2 SWAP1 POP JUMP JUMPDEST PUSH1 0x0 PUSH1 0x2 PUSH1 0x0 CALLER PUSH20 0xFFFFFFFFFFFFFFFFFFFFFFFFFFFFFFFFFFFFFFFF AND PUSH20 0xFFFFFFFFFFFFFFFFFFFFFFFFFFFFFFFFFFFFFFFF AND DUP2 MSTORE PUSH1 0x20 ADD SWAP1 DUP2 MSTORE PUSH1 0x20 ADD PUSH1 0x0 KECCAK256 PUSH1 0x40 MLOAD DUP1 PUSH1 0x60 ADD PUSH1 0x40 MSTORE SWAP1 DUP2 PUSH1 0x0 DUP3 ADD PUSH1 0x0 SWAP1 SLOAD SWAP1 PUSH2 0x100 EXP SWAP1 DIV PUSH20 0xFFFFFFFFFFFFFFFFFFFFFFFFFFFFFFFFFFFFFFFF AND PUSH20 0xFFFFFFFFFFFFFFFFFFFFFFFFFFFFFFFFFFFFFFFF AND PUSH20 0xFFFFFFFFFFFFFFFFFFFFFFFFFFFFFFFFFFFFFFFF AND DUP2 MSTORE PUSH1 0x20 ADD PUSH1 0x1 DUP3 ADD SLOAD DUP2 MSTORE PUSH1 0x20 ADD PUSH1 0x2 DUP3 ADD SLOAD DUP2 MSTORE POP POP SWAP1 POP PUSH1 0x0 DUP1 DUP3 PUSH1 0x20 ADD MLOAD GT ISZERO PUSH2 0x8D5 JUMPI PUSH1 0x0 PUSH2 0x8A1 DUP4 PUSH1 0x20 ADD MLOAD PUSH2 0x305 JUMP JUMPDEST SWAP1 POP PUSH1 0x0 PUSH2 0x8B2 DUP5 PUSH1 0x40 ADD MLOAD PUSH2 0x9D2 JUMP JUMPDEST SWAP1 POP PUSH2 0x8C6 PUSH2 0x8C1 DUP4 DUP4 PUSH2 0xE21 JUMP JUMPDEST PUSH2 0xE8C JUMP JUMPDEST PUSH8 0xFFFFFFFFFFFFFFFF AND SWAP3 POP POP POP JUMPDEST PUSH1 0x0 DUP2 SWAP1 POP PUSH1 0x0 PUSH1 0x2 PUSH1 0x0 CALLER PUSH20 0xFFFFFFFFFFFFFFFFFFFFFFFFFFFFFFFFFFFFFFFF AND PUSH20 0xFFFFFFFFFFFFFFFFFFFFFFFFFFFFFFFFFFFFFFFF AND DUP2 MSTORE PUSH1 0x20 ADD SWAP1 DUP2 MSTORE PUSH1 0x20 ADD PUSH1 0x0 KECCAK256 SWAP1 POP CALLER DUP2 PUSH1 0x0 ADD PUSH1 0x0 PUSH2 0x100 EXP DUP2 SLOAD DUP2 PUSH20 0xFFFFFFFFFFFFFFFFFFFFFFFFFFFFFFFFFFFFFFFF MUL NOT AND SWAP1 DUP4 PUSH20 0xFFFFFFFFFFFFFFFFFFFFFFFFFFFFFFFFFFFFFFFF AND MUL OR SWAP1 SSTORE POP TIMESTAMP DUP2 PUSH1 0x1 ADD DUP2 SWAP1 SSTORE POP DUP2 CALLVALUE PUSH2 0x975 SWAP2 SWAP1 PUSH2 0x113B JUMP JUMPDEST DUP2 PUSH1 0x2 ADD DUP2 SWAP1 SSTORE POP POP POP POP POP JUMP JUMPDEST CALLER PUSH20 0xFFFFFFFFFFFFFFFFFFFFFFFFFFFFFFFFFFFFFFFF AND PUSH2 0x8FC SELFBALANCE SWAP1 DUP2 ISZERO MUL SWAP1 PUSH1 0x40 MLOAD PUSH1 0x0 PUSH1 0x40 MLOAD DUP1 DUP4 SUB DUP2 DUP6 DUP9 DUP9 CALL SWAP4 POP POP POP POP ISZERO DUP1 ISZERO PUSH2 0x9C9 JUMPI RETURNDATASIZE PUSH1 0x0 DUP1 RETURNDATACOPY RETURNDATASIZE PUSH1 0x0 REVERT JUMPDEST POP JUMP JUMPDEST PUSH1 0x1 SLOAD DUP2 JUMP JUMPDEST PUSH1 0x0 PUSH8 0x7FFFFFFFFFFFFFFF DUP3 GT ISZERO PUSH2 0x9E9 JUMPI PUSH1 0x0 DUP1 REVERT JUMPDEST PUSH1 0x40 DUP3 SWAP1 SHL SWAP1 POP SWAP2 SWAP1 POP JUMP JUMPDEST PUSH1 0x0 DUP1 DUP3 PUSH1 0xF SIGNEXTEND EQ ISZERO PUSH2 0xA07 JUMPI PUSH1 0x0 DUP1 REVERT JUMPDEST PUSH1 0x0 DUP3 PUSH1 0xF SIGNEXTEND PUSH1 0x40 DUP6 PUSH1 0xF SIGNEXTEND SWAP1 SHL DUP2 PUSH2 0xA49 JUMPI PUSH32 0x4E487B7100000000000000000000000000000000000000000000000000000000 PUSH1 0x0 MSTORE PUSH1 0x12 PUSH1 0x4 MSTORE PUSH1 0x24 PUSH1 0x0 REVERT JUMPDEST SDIV SWAP1 POP PUSH32 0xFFFFFFFFFFFFFFFFFFFFFFFFFFFFFFFF80000000000000000000000000000000 PUSH1 0xF SIGNEXTEND DUP2 SLT ISZERO DUP1 ISZERO PUSH2 0xA92 JUMPI POP PUSH16 0x7FFFFFFFFFFFFFFFFFFFFFFFFFFFFFFF PUSH1 0xF SIGNEXTEND DUP2 SGT ISZERO JUMPDEST PUSH2 0xA9B JUMPI PUSH1 0x0 DUP1 REVERT JUMPDEST DUP1 SWAP2 POP POP SWAP3 SWAP2 POP POP JUMP JUMPDEST PUSH1 0x0 DUP1 DUP3 PUSH1 0xF SIGNEXTEND DUP5 PUSH1 0xF SIGNEXTEND ADD SWAP1 POP PUSH32 0xFFFFFFFFFFFFFFFFFFFFFFFFFFFFFFFF80000000000000000000000000000000 PUSH1 0xF SIGNEXTEND DUP2 SLT ISZERO DUP1 ISZERO PUSH2 0xAF9 JUMPI POP PUSH16 0x7FFFFFFFFFFFFFFFFFFFFFFFFFFFFFFF PUSH1 0xF SIGNEXTEND DUP2 SGT ISZERO JUMPDEST PUSH2 0xB02 JUMPI PUSH1 0x0 DUP1 REVERT JUMPDEST DUP1 SWAP2 POP POP SWAP3 SWAP2 POP POP JUMP JUMPDEST PUSH1 0x0 DUP1 PUSH1 0x0 DUP5 PUSH1 0xF SIGNEXTEND SLT DUP1 ISZERO PUSH2 0xB24 JUMPI POP PUSH1 0x1 DUP1 DUP5 AND EQ JUMPDEST SWAP1 POP PUSH1 0x0 DUP1 DUP6 PUSH1 0xF SIGNEXTEND SLT PUSH2 0xB38 JUMPI DUP5 PUSH2 0xB3D JUMP JUMPDEST DUP5 PUSH1 0x0 SUB JUMPDEST PUSH16 0xFFFFFFFFFFFFFFFFFFFFFFFFFFFFFFFF AND SWAP1 POP PUSH1 0x0 PUSH17 0x100000000000000000000000000000000 SWAP1 POP PUSH9 0x10000000000000000 DUP3 GT PUSH2 0xC17 JUMPI PUSH1 0x3F DUP3 SWAP1 SHL SWAP2 POP JUMPDEST PUSH1 0x0 DUP6 EQ PUSH2 0xC0B JUMPI PUSH1 0x0 PUSH1 0x1 DUP7 AND EQ PUSH2 0xB9C JUMPI PUSH1 0x7F DUP3 DUP3 MUL SWAP1 SHR SWAP1 POP JUMPDEST PUSH1 0x7F DUP3 DUP4 MUL SWAP1 SHR SWAP2 POP PUSH1 0x0 PUSH1 0x2 DUP7 AND EQ PUSH2 0xBBA JUMPI PUSH1 0x7F DUP3 DUP3 MUL SWAP1 SHR SWAP1 POP JUMPDEST PUSH1 0x7F DUP3 DUP4 MUL SWAP1 SHR SWAP2 POP PUSH1 0x0 PUSH1 0x4 DUP7 AND EQ PUSH2 0xBD8 JUMPI PUSH1 0x7F DUP3 DUP3 MUL SWAP1 SHR SWAP1 POP JUMPDEST PUSH1 0x7F DUP3 DUP4 MUL SWAP1 SHR SWAP2 POP PUSH1 0x0 PUSH1 0x8 DUP7 AND EQ PUSH2 0xBF6 JUMPI PUSH1 0x7F DUP3 DUP3 MUL SWAP1 SHR SWAP1 POP JUMPDEST PUSH1 0x7F DUP3 DUP4 MUL SWAP1 SHR SWAP2 POP PUSH1 0x4 DUP6 SWAP1 SHR SWAP5 POP PUSH2 0xB7F JUMP JUMPDEST PUSH1 0x40 DUP2 SWAP1 SHR SWAP1 POP PUSH2 0xDB1 JUMP JUMPDEST PUSH1 0x0 PUSH1 0x3F SWAP1 POP PUSH13 0x1000000000000000000000000 DUP4 LT ISZERO PUSH2 0xC40 JUMPI PUSH1 0x20 DUP4 SWAP1 SHL SWAP3 POP PUSH1 0x20 DUP2 SUB SWAP1 POP JUMPDEST PUSH15 0x10000000000000000000000000000 DUP4 LT ISZERO PUSH2 0xC65 JUMPI PUSH1 0x10 DUP4 SWAP1 SHL SWAP3 POP PUSH1 0x10 DUP2 SUB SWAP1 POP JUMPDEST PUSH16 0x1000000000000000000000000000000 DUP4 LT ISZERO PUSH2 0xC8B JUMPI PUSH1 0x8 DUP4 SWAP1 SHL SWAP3 POP PUSH1 0x8 DUP2 SUB SWAP1 POP JUMPDEST PUSH16 0x10000000000000000000000000000000 DUP4 LT ISZERO PUSH2 0xCB1 JUMPI PUSH1 0x4 DUP4 SWAP1 SHL SWAP3 POP PUSH1 0x4 DUP2 SUB SWAP1 POP JUMPDEST PUSH16 0x40000000000000000000000000000000 DUP4 LT ISZERO PUSH2 0xCD7 JUMPI PUSH1 0x2 DUP4 SWAP1 SHL SWAP3 POP PUSH1 0x2 DUP2 SUB SWAP1 POP JUMPDEST PUSH16 0x80000000000000000000000000000000 DUP4 LT ISZERO PUSH2 0xCFD JUMPI PUSH1 0x1 DUP4 SWAP1 SHL SWAP3 POP PUSH1 0x1 DUP2 SUB SWAP1 POP JUMPDEST PUSH1 0x0 JUMPDEST PUSH1 0x0 DUP8 EQ PUSH2 0xD98 JUMPI PUSH1 0x40 DUP3 LT PUSH2 0xD15 JUMPI PUSH1 0x0 DUP1 REVERT JUMPDEST PUSH1 0x0 PUSH1 0x1 DUP9 AND EQ PUSH2 0xD56 JUMPI PUSH1 0x7F DUP5 DUP5 MUL SWAP1 SHR SWAP3 POP DUP2 DUP2 ADD SWAP1 POP PUSH17 0x100000000000000000000000000000000 DUP4 GT ISZERO PUSH2 0xD55 JUMPI PUSH1 0x1 DUP4 SWAP1 SHR SWAP3 POP PUSH1 0x1 DUP2 ADD SWAP1 POP JUMPDEST JUMPDEST PUSH1 0x7F DUP5 DUP6 MUL SWAP1 SHR SWAP4 POP PUSH1 0x1 DUP3 SWAP1 SHL SWAP2 POP PUSH17 0x100000000000000000000000000000000 DUP5 LT PUSH2 0xD8C JUMPI PUSH1 0x1 DUP5 SWAP1 SHR SWAP4 POP PUSH1 0x1 DUP3 ADD SWAP2 POP JUMPDEST PUSH1 0x1 DUP8 SWAP1 SHR SWAP7 POP PUSH2 0xD00 JUMP JUMPDEST PUSH1 0x40 DUP2 LT PUSH2 0xDA5 JUMPI PUSH1 0x0 DUP1 REVERT JUMPDEST DUP1 PUSH1 0x40 SUB DUP4 SWAP1 SHR SWAP3 POP POP POP JUMPDEST PUSH1 0x0 DUP4 PUSH2 0xDBE JUMPI DUP2 PUSH2 0xDC3 JUMP JUMPDEST DUP2 PUSH1 0x0 SUB JUMPDEST SWAP1 POP PUSH32 0xFFFFFFFFFFFFFFFFFFFFFFFFFFFFFFFF80000000000000000000000000000000 PUSH1 0xF SIGNEXTEND DUP2 SLT ISZERO DUP1 ISZERO PUSH2 0xE0B JUMPI POP PUSH16 0x7FFFFFFFFFFFFFFFFFFFFFFFFFFFFFFF PUSH1 0xF SIGNEXTEND DUP2 SGT ISZERO JUMPDEST PUSH2 0xE14 JUMPI PUSH1 0x0 DUP1 REVERT JUMPDEST DUP1 SWAP5 POP POP POP POP POP SWAP3 SWAP2 POP POP JUMP JUMPDEST PUSH1 0x0 DUP1 PUSH1 0x40 DUP4 PUSH1 0xF SIGNEXTEND DUP6 PUSH1 0xF SIGNEXTEND MUL SWAP1 SAR SWAP1 POP PUSH32 0xFFFFFFFFFFFFFFFFFFFFFFFFFFFFFFFF80000000000000000000000000000000 PUSH1 0xF SIGNEXTEND DUP2 SLT ISZERO DUP1 ISZERO PUSH2 0xE79 JUMPI POP PUSH16 0x7FFFFFFFFFFFFFFFFFFFFFFFFFFFFFFF PUSH1 0xF SIGNEXTEND DUP2 SGT ISZERO JUMPDEST PUSH2 0xE82 JUMPI PUSH1 0x0 DUP1 REVERT JUMPDEST DUP1 SWAP2 POP POP SWAP3 SWAP2 POP POP JUMP JUMPDEST PUSH1 0x0 DUP1 DUP3 PUSH1 0xF SIGNEXTEND SLT ISZERO PUSH2 0xE9E JUMPI PUSH1 0x0 DUP1 REVERT JUMPDEST PUSH1 0x40 DUP3 PUSH1 0xF SIGNEXTEND SWAP1 SAR SWAP1 POP SWAP2 SWAP1 POP JUMP JUMPDEST PUSH1 0x0 DUP2 CALLDATALOAD SWAP1 POP PUSH2 0xEBC DUP2 PUSH2 0x133E JUMP JUMPDEST SWAP3 SWAP2 POP POP JUMP JUMPDEST PUSH1 0x0 DUP2 MLOAD SWAP1 POP PUSH2 0xED1 DUP2 PUSH2 0x1355 JUMP JUMPDEST SWAP3 SWAP2 POP POP JUMP JUMPDEST PUSH1 0x0 DUP2 CALLDATALOAD SWAP1 POP PUSH2 0xEE6 DUP2 PUSH2 0x136C JUMP JUMPDEST SWAP3 SWAP2 POP POP JUMP JUMPDEST PUSH1 0x0 DUP2 CALLDATALOAD SWAP1 POP PUSH2 0xEFB DUP2 PUSH2 0x1383 JUMP JUMPDEST SWAP3 SWAP2 POP POP JUMP JUMPDEST PUSH1 0x0 DUP2 MLOAD SWAP1 POP PUSH2 0xF10 DUP2 PUSH2 0x1383 JUMP JUMPDEST SWAP3 SWAP2 POP POP JUMP JUMPDEST PUSH1 0x0 PUSH1 0x20 DUP3 DUP5 SUB SLT ISZERO PUSH2 0xF28 JUMPI PUSH1 0x0 DUP1 REVERT JUMPDEST PUSH1 0x0 PUSH2 0xF36 DUP5 DUP3 DUP6 ADD PUSH2 0xEAD JUMP JUMPDEST SWAP2 POP POP SWAP3 SWAP2 POP POP JUMP JUMPDEST PUSH1 0x0 PUSH1 0x20 DUP3 DUP5 SUB SLT ISZERO PUSH2 0xF51 JUMPI PUSH1 0x0 DUP1 REVERT JUMPDEST PUSH1 0x0 PUSH2 0xF5F DUP5 DUP3 DUP6 ADD PUSH2 0xEC2 JUMP JUMPDEST SWAP2 POP POP SWAP3 SWAP2 POP POP JUMP JUMPDEST PUSH1 0x0 DUP1 PUSH1 0x0 PUSH1 0x60 DUP5 DUP7 SUB SLT ISZERO PUSH2 0xF7D JUMPI PUSH1 0x0 DUP1 REVERT JUMPDEST PUSH1 0x0 PUSH2 0xF8B DUP7 DUP3 DUP8 ADD PUSH2 0xED7 JUMP JUMPDEST SWAP4 POP POP PUSH1 0x20 PUSH2 0xF9C DUP7 DUP3 DUP8 ADD PUSH2 0xEAD JUMP JUMPDEST SWAP3 POP POP PUSH1 0x40 PUSH2 0xFAD DUP7 DUP3 DUP8 ADD PUSH2 0xEEC JUMP JUMPDEST SWAP2 POP POP SWAP3 POP SWAP3 POP SWAP3 JUMP JUMPDEST PUSH1 0x0 PUSH1 0x20 DUP3 DUP5 SUB SLT ISZERO PUSH2 0xFC9 JUMPI PUSH1 0x0 DUP1 REVERT JUMPDEST PUSH1 0x0 PUSH2 0xFD7 DUP5 DUP3 DUP6 ADD PUSH2 0xEEC JUMP JUMPDEST SWAP2 POP POP SWAP3 SWAP2 POP POP JUMP JUMPDEST PUSH1 0x0 PUSH1 0x20 DUP3 DUP5 SUB SLT ISZERO PUSH2 0xFF2 JUMPI PUSH1 0x0 DUP1 REVERT JUMPDEST PUSH1 0x0 PUSH2 0x1000 DUP5 DUP3 DUP6 ADD PUSH2 0xF01 JUMP JUMPDEST SWAP2 POP POP SWAP3 SWAP2 POP POP JUMP JUMPDEST PUSH2 0x1012 DUP2 PUSH2 0x1250 JUMP JUMPDEST DUP3 MSTORE POP POP JUMP JUMPDEST PUSH2 0x1021 DUP2 PUSH2 0x1280 JUMP JUMPDEST DUP3 MSTORE POP POP JUMP JUMPDEST PUSH1 0x0 PUSH2 0x1034 PUSH1 0xE DUP4 PUSH2 0x112A JUMP JUMPDEST SWAP2 POP PUSH2 0x103F DUP3 PUSH2 0x1315 JUMP JUMPDEST PUSH1 0x20 DUP3 ADD SWAP1 POP SWAP2 SWAP1 POP JUMP JUMPDEST PUSH2 0x1053 DUP2 PUSH2 0x12AD JUMP JUMPDEST DUP3 MSTORE POP POP JUMP JUMPDEST PUSH1 0x0 PUSH1 0x20 DUP3 ADD SWAP1 POP PUSH2 0x106E PUSH1 0x0 DUP4 ADD DUP5 PUSH2 0x1009 JUMP JUMPDEST SWAP3 SWAP2 POP POP JUMP JUMPDEST PUSH1 0x0 PUSH1 0x40 DUP3 ADD SWAP1 POP PUSH2 0x1089 PUSH1 0x0 DUP4 ADD DUP6 PUSH2 0x1009 JUMP JUMPDEST PUSH2 0x1096 PUSH1 0x20 DUP4 ADD DUP5 PUSH2 0x104A JUMP JUMPDEST SWAP4 SWAP3 POP POP POP JUMP JUMPDEST PUSH1 0x0 PUSH1 0x60 DUP3 ADD SWAP1 POP PUSH2 0x10B2 PUSH1 0x0 DUP4 ADD DUP7 PUSH2 0x1009 JUMP JUMPDEST PUSH2 0x10BF PUSH1 0x20 DUP4 ADD DUP6 PUSH2 0x104A JUMP JUMPDEST PUSH2 0x10CC PUSH1 0x40 DUP4 ADD DUP5 PUSH2 0x104A JUMP JUMPDEST SWAP5 SWAP4 POP POP POP POP JUMP JUMPDEST PUSH1 0x0 PUSH1 0x20 DUP3 ADD SWAP1 POP PUSH2 0x10E9 PUSH1 0x0 DUP4 ADD DUP5 PUSH2 0x1018 JUMP JUMPDEST SWAP3 SWAP2 POP POP JUMP JUMPDEST PUSH1 0x0 PUSH1 0x20 DUP3 ADD SWAP1 POP DUP2 DUP2 SUB PUSH1 0x0 DUP4 ADD MSTORE PUSH2 0x1108 DUP2 PUSH2 0x1027 JUMP JUMPDEST SWAP1 POP SWAP2 SWAP1 POP JUMP JUMPDEST PUSH1 0x0 PUSH1 0x20 DUP3 ADD SWAP1 POP PUSH2 0x1124 PUSH1 0x0 DUP4 ADD DUP5 PUSH2 0x104A JUMP JUMPDEST SWAP3 SWAP2 POP POP JUMP JUMPDEST PUSH1 0x0 DUP3 DUP3 MSTORE PUSH1 0x20 DUP3 ADD SWAP1 POP SWAP3 SWAP2 POP POP JUMP JUMPDEST PUSH1 0x0 PUSH2 0x1146 DUP3 PUSH2 0x12AD JUMP JUMPDEST SWAP2 POP PUSH2 0x1151 DUP4 PUSH2 0x12AD JUMP JUMPDEST SWAP3 POP DUP3 PUSH32 0xFFFFFFFFFFFFFFFFFFFFFFFFFFFFFFFFFFFFFFFFFFFFFFFFFFFFFFFFFFFFFFFF SUB DUP3 GT ISZERO PUSH2 0x1186 JUMPI PUSH2 0x1185 PUSH2 0x12B7 JUMP JUMPDEST JUMPDEST DUP3 DUP3 ADD SWAP1 POP SWAP3 SWAP2 POP POP JUMP JUMPDEST PUSH1 0x0 PUSH2 0x119C DUP3 PUSH2 0x12AD JUMP JUMPDEST SWAP2 POP PUSH2 0x11A7 DUP4 PUSH2 0x12AD JUMP JUMPDEST SWAP3 POP DUP3 PUSH2 0x11B7 JUMPI PUSH2 0x11B6 PUSH2 0x12E6 JUMP JUMPDEST JUMPDEST DUP3 DUP3 DIV SWAP1 POP SWAP3 SWAP2 POP POP JUMP JUMPDEST PUSH1 0x0 PUSH2 0x11CD DUP3 PUSH2 0x12AD JUMP JUMPDEST SWAP2 POP PUSH2 0x11D8 DUP4 PUSH2 0x12AD JUMP JUMPDEST SWAP3 POP DUP2 PUSH32 0xFFFFFFFFFFFFFFFFFFFFFFFFFFFFFFFFFFFFFFFFFFFFFFFFFFFFFFFFFFFFFFFF DIV DUP4 GT DUP3 ISZERO ISZERO AND ISZERO PUSH2 0x1211 JUMPI PUSH2 0x1210 PUSH2 0x12B7 JUMP JUMPDEST JUMPDEST DUP3 DUP3 MUL SWAP1 POP SWAP3 SWAP2 POP POP JUMP JUMPDEST PUSH1 0x0 PUSH2 0x1227 DUP3 PUSH2 0x12AD JUMP JUMPDEST SWAP2 POP PUSH2 0x1232 DUP4 PUSH2 0x12AD JUMP JUMPDEST SWAP3 POP DUP3 DUP3 LT ISZERO PUSH2 0x1245 JUMPI PUSH2 0x1244 PUSH2 0x12B7 JUMP JUMPDEST JUMPDEST DUP3 DUP3 SUB SWAP1 POP SWAP3 SWAP2 POP POP JUMP JUMPDEST PUSH1 0x0 PUSH2 0x125B DUP3 PUSH2 0x128D JUMP JUMPDEST SWAP1 POP SWAP2 SWAP1 POP JUMP JUMPDEST PUSH1 0x0 DUP2 ISZERO ISZERO SWAP1 POP SWAP2 SWAP1 POP JUMP JUMPDEST PUSH1 0x0 PUSH2 0x1279 DUP3 PUSH2 0x1250 JUMP JUMPDEST SWAP1 POP SWAP2 SWAP1 POP JUMP JUMPDEST PUSH1 0x0 DUP2 PUSH1 0xF SIGNEXTEND SWAP1 POP SWAP2 SWAP1 POP JUMP JUMPDEST PUSH1 0x0 PUSH20 0xFFFFFFFFFFFFFFFFFFFFFFFFFFFFFFFFFFFFFFFF DUP3 AND SWAP1 POP SWAP2 SWAP1 POP JUMP JUMPDEST PUSH1 0x0 DUP2 SWAP1 POP SWAP2 SWAP1 POP JUMP JUMPDEST PUSH32 0x4E487B7100000000000000000000000000000000000000000000000000000000 PUSH1 0x0 MSTORE PUSH1 0x11 PUSH1 0x4 MSTORE PUSH1 0x24 PUSH1 0x0 REVERT JUMPDEST PUSH32 0x4E487B7100000000000000000000000000000000000000000000000000000000 PUSH1 0x0 MSTORE PUSH1 0x12 PUSH1 0x4 MSTORE PUSH1 0x24 PUSH1 0x0 REVERT JUMPDEST PUSH32 0x62616C616E6365206973206C6F77000000000000000000000000000000000000 PUSH1 0x0 DUP3 ADD MSTORE POP JUMP JUMPDEST PUSH2 0x1347 DUP2 PUSH2 0x1250 JUMP JUMPDEST DUP2 EQ PUSH2 0x1352 JUMPI PUSH1 0x0 DUP1 REVERT JUMPDEST POP JUMP JUMPDEST PUSH2 0x135E DUP2 PUSH2 0x1262 JUMP JUMPDEST DUP2 EQ PUSH2 0x1369 JUMPI PUSH1 0x0 DUP1 REVERT JUMPDEST POP JUMP JUMPDEST PUSH2 0x1375 DUP2 PUSH2 0x126E JUMP JUMPDEST DUP2 EQ PUSH2 0x1380 JUMPI PUSH1 0x0 DUP1 REVERT JUMPDEST POP JUMP JUMPDEST PUSH2 0x138C DUP2 PUSH2 0x12AD JUMP JUMPDEST DUP2 EQ PUSH2 0x1397 JUMPI PUSH1 0x0 DUP1 REVERT JUMPDEST POP JUMP INVALID LOG2 PUSH5 0x6970667358 0x22 SLT KECCAK256 0x2C EXTCODECOPY 0xC0 0x4D 0xAA 0x26 GT 0xB3 LOG1 SWAP2 0xE4 0xE4 0xB3 PUSH6 0x530E099114C3 INVALID EXTCODECOPY NUMBER PUSH19 0xA6D6B0B13C00EA9E64736F6C63430008010033 "
        },
        "methodIdentifiers": {
          "allInvestors(address)": "cea94410",
          "changeCDIinterestRate(uint256)": "96a2e687",
          "checkContractBalance()": "50312c9e",
          "checkMyBalance()": "b37d61f8",
          "contractOwner()": "ce606ee0",
          "dailyCDIinPoints()": "f22f0062",
          "etherToWei(uint256)": "d8916bb9",
          "getInterestSince(uint256)": "0a2d8c75",
          "getMoneyBackDebug()": "ebdf983a",
          "invest()": "e8b5e51f",
          "transferERC20(address,address,uint256)": "9db5dbe4",
          "weiToEther(uint256)": "d0eff891",
          "withdrawTokens(uint256)": "315a095d"
        }
      }
    }
  }
}