{
  "_format": "hh-sol-artifact-1",
  "contractName": "LiquidityPool",
  "sourceName": "contracts/LiquidityPool.sol",
  "abi": [
    {
      "inputs": [
        {
          "internalType": "contract IERC20",
          "name": "_brlcToken",
          "type": "address"
        }
      ],
      "stateMutability": "nonpayable",
      "type": "constructor"
    },
    {
      "inputs": [
        {
          "internalType": "address",
          "name": "",
          "type": "address"
        }
      ],
      "name": "allInvestors",
      "outputs": [
        {
          "internalType": "address",
          "name": "investor",
          "type": "address"
        },
        {
          "internalType": "uint256",
          "name": "timestampOfDeposit",
          "type": "uint256"
        },
        {
          "internalType": "uint256",
          "name": "amountOfMoney",
          "type": "uint256"
        }
      ],
      "stateMutability": "view",
      "type": "function"
    },
    {
      "inputs": [
        {
          "internalType": "uint256",
          "name": "cdiInPercentualPoints",
          "type": "uint256"
        }
      ],
      "name": "changeCDIinterestRate",
      "outputs": [],
      "stateMutability": "nonpayable",
      "type": "function"
    },
    {
      "inputs": [],
      "name": "checkContractBalance",
      "outputs": [
        {
          "internalType": "uint256",
          "name": "",
          "type": "uint256"
        }
      ],
      "stateMutability": "view",
      "type": "function"
    },
    {
      "inputs": [],
      "name": "checkMyBalance",
      "outputs": [
        {
          "internalType": "uint256",
          "name": "",
          "type": "uint256"
        }
      ],
      "stateMutability": "view",
      "type": "function"
    },
    {
      "inputs": [],
      "name": "contractOwner",
      "outputs": [
        {
          "internalType": "address",
          "name": "",
          "type": "address"
        }
      ],
      "stateMutability": "view",
      "type": "function"
    },
    {
      "inputs": [],
      "name": "dailyCDIinPoints",
      "outputs": [
        {
          "internalType": "uint256",
          "name": "",
          "type": "uint256"
        }
      ],
      "stateMutability": "view",
      "type": "function"
    },
    {
      "inputs": [
        {
          "internalType": "uint256",
          "name": "valueEther",
          "type": "uint256"
        }
      ],
      "name": "etherToWei",
      "outputs": [
        {
          "internalType": "uint256",
          "name": "",
          "type": "uint256"
        }
      ],
      "stateMutability": "pure",
      "type": "function"
    },
    {
      "inputs": [],
      "name": "getBalanceERC20",
      "outputs": [
        {
          "internalType": "uint256",
          "name": "",
          "type": "uint256"
        }
      ],
      "stateMutability": "view",
      "type": "function"
    },
    {
      "inputs": [
        {
          "internalType": "uint256",
          "name": "timestampOfDeposit",
          "type": "uint256"
        }
      ],
      "name": "getInterestSince",
      "outputs": [
        {
          "internalType": "int128",
          "name": "",
          "type": "int128"
        }
      ],
      "stateMutability": "view",
      "type": "function"
    },
    {
      "inputs": [],
      "name": "getMoneyBackDebug",
      "outputs": [],
      "stateMutability": "nonpayable",
      "type": "function"
    },
    {
      "inputs": [],
      "name": "invest",
      "outputs": [],
      "stateMutability": "payable",
      "type": "function"
    },
    {
      "inputs": [
        {
          "internalType": "address",
          "name": "to",
          "type": "address"
        },
        {
          "internalType": "uint256",
          "name": "amount",
          "type": "uint256"
        }
      ],
      "name": "transferERC20",
      "outputs": [],
      "stateMutability": "nonpayable",
      "type": "function"
    },
    {
      "inputs": [
        {
          "internalType": "uint256",
          "name": "valueWei",
          "type": "uint256"
        }
      ],
      "name": "weiToEther",
      "outputs": [
        {
          "internalType": "uint256",
          "name": "",
          "type": "uint256"
        }
      ],
      "stateMutability": "pure",
      "type": "function"
    },
    {
      "inputs": [
        {
          "internalType": "uint256",
          "name": "requestedValue",
          "type": "uint256"
        }
      ],
      "name": "withdrawTokens",
      "outputs": [],
      "stateMutability": "nonpayable",
      "type": "function"
    }
  ],
  "bytecode": "0x608060405261bf8d600255620151806004553480156200001e57600080fd5b5060405162001bcf38038062001bcf8339818101604052810190620000449190620000e3565b806000806101000a81548173ffffffffffffffffffffffffffffffffffffffff021916908373ffffffffffffffffffffffffffffffffffffffff16021790555033600160006101000a81548173ffffffffffffffffffffffffffffffffffffffff021916908373ffffffffffffffffffffffffffffffffffffffff1602179055505062000171565b600081519050620000dd8162000157565b92915050565b600060208284031215620000f657600080fd5b60006200010684828501620000cc565b91505092915050565b60006200011c8262000137565b9050919050565b600062000130826200010f565b9050919050565b600073ffffffffffffffffffffffffffffffffffffffff82169050919050565b620001628162000123565b81146200016e57600080fd5b50565b611a4e80620001816000396000f3fe6080604052600436106100dd5760003560e01c8063cea944101161007f578063e8b5e51f11610059578063e8b5e51f146102d6578063ebdf983a146102e0578063f22f0062146102f7578063f7448a3114610322576100dd565b8063cea944101461021d578063d0eff8911461025c578063d8916bb914610299576100dd565b80635c03acc4116100bb5780635c03acc41461017357806396a2e6871461019e578063b37d61f8146101c7578063ce606ee0146101f2576100dd565b80630a2d8c75146100e2578063315a095d1461011f57806350312c9e14610148575b600080fd5b3480156100ee57600080fd5b50610109600480360381019061010491906113c6565b61034b565b60405161011691906115cd565b60405180910390f35b34801561012b57600080fd5b50610146600480360381019061014191906113c6565b6103b2565b005b34801561015457600080fd5b5061015d6104ff565b60405161016a919061168a565b60405180910390f35b34801561017f57600080fd5b50610188610507565b604051610195919061168a565b60405180910390f35b3480156101aa57600080fd5b506101c560048036038101906101c091906113c6565b6105bc565b005b3480156101d357600080fd5b506101dc610620565b6040516101e9919061168a565b60405180910390f35b3480156101fe57600080fd5b5061020761066f565b6040516102149190611552565b60405180910390f35b34801561022957600080fd5b50610244600480360381019061023f9190611338565b610695565b60405161025393929190611596565b60405180910390f35b34801561026857600080fd5b50610283600480360381019061027e91906113c6565b6106df565b604051610290919061168a565b60405180910390f35b3480156102a557600080fd5b506102c060048036038101906102bb91906113c6565b6106f7565b6040516102cd919061168a565b60405180910390f35b6102de61070f565b005b3480156102ec57600080fd5b506102f5610976565b005b34801561030357600080fd5b5061030c6109bf565b604051610319919061168a565b60405180910390f35b34801561032e57600080fd5b5061034960048036038101906103449190611361565b6109c5565b005b6000804290506000838261035f91906117b8565b9050600060fc905060006103a461039e6103796001610b06565b610399610387600254610b06565b6103946305f5e100610b06565b610b29565b610bd9565b83610c40565b905080945050505050919050565b6000600360003373ffffffffffffffffffffffffffffffffffffffff1673ffffffffffffffffffffffffffffffffffffffff1681526020019081526020016000209050600081600201541161040657600080fd5b8060020154821061041657600080fd5b6000610425826001015461034b565b905060006104368360020154610b06565b9050600061044c6104478484610f55565b610fc0565b67ffffffffffffffff1690506000858261046691906117b8565b905060008560000160009054906101000a900473ffffffffffffffffffffffffffffffffffffffff1690506104e48161049e896106f7565b60008054906101000a900473ffffffffffffffffffffffffffffffffffffffff1673ffffffffffffffffffffffffffffffffffffffff16610fe19092919063ffffffff16565b81866002018190555042866001018190555050505050505050565b600047905090565b60008060008054906101000a900473ffffffffffffffffffffffffffffffffffffffff1673ffffffffffffffffffffffffffffffffffffffff166370a08231306040518263ffffffff1660e01b81526004016105639190611552565b60206040518083038186803b15801561057b57600080fd5b505afa15801561058f573d6000803e3d6000fd5b505050506040513d601f19601f820116820180604052508101906105b391906113ef565b90508091505090565b600160009054906101000a900473ffffffffffffffffffffffffffffffffffffffff1673ffffffffffffffffffffffffffffffffffffffff163373ffffffffffffffffffffffffffffffffffffffff161461061657600080fd5b8060028190555050565b600080600360003373ffffffffffffffffffffffffffffffffffffffff1673ffffffffffffffffffffffffffffffffffffffff1681526020019081526020016000206002015490508091505090565b600160009054906101000a900473ffffffffffffffffffffffffffffffffffffffff1681565b60036020528060005260406000206000915090508060000160009054906101000a900473ffffffffffffffffffffffffffffffffffffffff16908060010154908060020154905083565b6000620f4240826106f0919061172d565b9050919050565b6000620f424082610708919061175e565b9050919050565b6000600360003373ffffffffffffffffffffffffffffffffffffffff1673ffffffffffffffffffffffffffffffffffffffff1681526020019081526020016000206040518060600160405290816000820160009054906101000a900473ffffffffffffffffffffffffffffffffffffffff1673ffffffffffffffffffffffffffffffffffffffff1673ffffffffffffffffffffffffffffffffffffffff168152602001600182015481526020016002820154815250509050600080826020015111156108185760006107e4836020015161034b565b905060006107f58460400151610b06565b90506108096108048383610f55565b610fc0565b67ffffffffffffffff16925050505b60008190506000600360003373ffffffffffffffffffffffffffffffffffffffff1673ffffffffffffffffffffffffffffffffffffffff1681526020019081526020016000209050338160000160006101000a81548173ffffffffffffffffffffffffffffffffffffffff021916908373ffffffffffffffffffffffffffffffffffffffff1602179055504281600101819055508161095e60008054906101000a900473ffffffffffffffffffffffffffffffffffffffff1673ffffffffffffffffffffffffffffffffffffffff166370a08231306040518263ffffffff1660e01b81526004016109099190611552565b60206040518083038186803b15801561092157600080fd5b505afa158015610935573d6000803e3d6000fd5b505050506040513d601f19601f8201168201806040525081019061095991906113ef565b6106df565b61096891906116d7565b816002018190555050505050565b3373ffffffffffffffffffffffffffffffffffffffff166108fc479081150290604051600060405180830381858888f193505050501580156109bc573d6000803e3d6000fd5b50565b60025481565b60008060009054906101000a900473ffffffffffffffffffffffffffffffffffffffff1673ffffffffffffffffffffffffffffffffffffffff166370a08231306040518263ffffffff1660e01b8152600401610a219190611552565b60206040518083038186803b158015610a3957600080fd5b505afa158015610a4d573d6000803e3d6000fd5b505050506040513d601f19601f82011682018060405250810190610a7191906113ef565b905080821115610ab6576040517f08c379a0000000000000000000000000000000000000000000000000000000008152600401610aad9061162a565b60405180910390fd5b610b01838360008054906101000a900473ffffffffffffffffffffffffffffffffffffffff1673ffffffffffffffffffffffffffffffffffffffff16610fe19092919063ffffffff16565b505050565b6000677fffffffffffffff821115610b1d57600080fd5b604082901b9050919050565b60008082600f0b1415610b3b57600080fd5b600082600f0b604085600f0b901b81610b7d577f4e487b7100000000000000000000000000000000000000000000000000000000600052601260045260246000fd5b0590507fffffffffffffffffffffffffffffffff80000000000000000000000000000000600f0b8112158015610bc657506f7fffffffffffffffffffffffffffffff600f0b8113155b610bcf57600080fd5b8091505092915050565b60008082600f0b84600f0b0190507fffffffffffffffffffffffffffffffff80000000000000000000000000000000600f0b8112158015610c2d57506f7fffffffffffffffffffffffffffffff600f0b8113155b610c3657600080fd5b8091505092915050565b600080600084600f0b128015610c5857506001808416145b905060008085600f0b12610c6c5784610c71565b846000035b6fffffffffffffffffffffffffffffffff16905060007001000000000000000000000000000000009050680100000000000000008211610d4b57603f82901b91505b60008514610d3f5760006001861614610cd057607f828202901c90505b607f828302901c915060006002861614610cee57607f828202901c90505b607f828302901c915060006004861614610d0c57607f828202901c90505b607f828302901c915060006008861614610d2a57607f828202901c90505b607f828302901c9150600485901c9450610cb3565b604081901c9050610ee5565b6000603f90506c01000000000000000000000000831015610d7457602083901b92506020810390505b6e010000000000000000000000000000831015610d9957601083901b92506010810390505b6f01000000000000000000000000000000831015610dbf57600883901b92506008810390505b6f10000000000000000000000000000000831015610de557600483901b92506004810390505b6f40000000000000000000000000000000831015610e0b57600283901b92506002810390505b6f80000000000000000000000000000000831015610e3157600183901b92506001810390505b60005b60008714610ecc5760408210610e4957600080fd5b60006001881614610e8a57607f848402901c92508181019050700100000000000000000000000000000000831115610e8957600183901c92506001810190505b5b607f848502901c9350600182901b91507001000000000000000000000000000000008410610ec057600184901c93506001820191505b600187901c9650610e34565b60408110610ed957600080fd5b8060400383901c925050505b600083610ef25781610ef7565b816000035b90507fffffffffffffffffffffffffffffffff80000000000000000000000000000000600f0b8112158015610f3f57506f7fffffffffffffffffffffffffffffff600f0b8113155b610f4857600080fd5b8094505050505092915050565b600080604083600f0b85600f0b02901d90507fffffffffffffffffffffffffffffffff80000000000000000000000000000000600f0b8112158015610fad57506f7fffffffffffffffffffffffffffffff600f0b8113155b610fb657600080fd5b8091505092915050565b60008082600f0b1215610fd257600080fd5b604082600f0b901d9050919050565b6110628363a9059cbb60e01b848460405160240161100092919061156d565b604051602081830303815290604052907bffffffffffffffffffffffffffffffffffffffffffffffffffffffff19166020820180517bffffffffffffffffffffffffffffffffffffffffffffffffffffffff8381831617835250505050611067565b505050565b60006110c9826040518060400160405280602081526020017f5361666545524332303a206c6f772d6c6576656c2063616c6c206661696c65648152508573ffffffffffffffffffffffffffffffffffffffff1661112e9092919063ffffffff16565b905060008151111561112957808060200190518101906110e9919061139d565b611128576040517f08c379a000000000000000000000000000000000000000000000000000000000815260040161111f9061166a565b60405180910390fd5b5b505050565b606061113d8484600085611146565b90509392505050565b60608247101561118b576040517f08c379a00000000000000000000000000000000000000000000000000000000081526004016111829061160a565b60405180910390fd5b6111948561125a565b6111d3576040517f08c379a00000000000000000000000000000000000000000000000000000000081526004016111ca9061164a565b60405180910390fd5b6000808673ffffffffffffffffffffffffffffffffffffffff1685876040516111fc919061153b565b60006040518083038185875af1925050503d8060008114611239576040519150601f19603f3d011682016040523d82523d6000602084013e61123e565b606091505b509150915061124e82828661127d565b92505050949350505050565b6000808273ffffffffffffffffffffffffffffffffffffffff163b119050919050565b6060831561128d578290506112dd565b6000835111156112a05782518084602001fd5b816040517f08c379a00000000000000000000000000000000000000000000000000000000081526004016112d491906115e8565b60405180910390fd5b9392505050565b6000813590506112f3816119d3565b92915050565b600081519050611308816119ea565b92915050565b60008135905061131d81611a01565b92915050565b60008151905061133281611a01565b92915050565b60006020828403121561134a57600080fd5b6000611358848285016112e4565b91505092915050565b6000806040838503121561137457600080fd5b6000611382858286016112e4565b92505060206113938582860161130e565b9150509250929050565b6000602082840312156113af57600080fd5b60006113bd848285016112f9565b91505092915050565b6000602082840312156113d857600080fd5b60006113e68482850161130e565b91505092915050565b60006020828403121561140157600080fd5b600061140f84828501611323565b91505092915050565b611421816117ec565b82525050565b6000611432826116a5565b61143c81856116bb565b935061144c818560208601611841565b80840191505092915050565b6114618161180a565b82525050565b6000611472826116b0565b61147c81856116c6565b935061148c818560208601611841565b611495816118d2565b840191505092915050565b60006114ad6026836116c6565b91506114b8826118e3565b604082019050919050565b60006114d0600e836116c6565b91506114db82611932565b602082019050919050565b60006114f3601d836116c6565b91506114fe8261195b565b602082019050919050565b6000611516602a836116c6565b915061152182611984565b604082019050919050565b61153581611837565b82525050565b60006115478284611427565b915081905092915050565b60006020820190506115676000830184611418565b92915050565b60006040820190506115826000830185611418565b61158f602083018461152c565b9392505050565b60006060820190506115ab6000830186611418565b6115b8602083018561152c565b6115c5604083018461152c565b949350505050565b60006020820190506115e26000830184611458565b92915050565b600060208201905081810360008301526116028184611467565b905092915050565b60006020820190508181036000830152611623816114a0565b9050919050565b60006020820190508181036000830152611643816114c3565b9050919050565b60006020820190508181036000830152611663816114e6565b9050919050565b6000602082019050818103600083015261168381611509565b9050919050565b600060208201905061169f600083018461152c565b92915050565b600081519050919050565b600081519050919050565b600081905092915050565b600082825260208201905092915050565b60006116e282611837565b91506116ed83611837565b9250827fffffffffffffffffffffffffffffffffffffffffffffffffffffffffffffffff0382111561172257611721611874565b5b828201905092915050565b600061173882611837565b915061174383611837565b925082611753576117526118a3565b5b828204905092915050565b600061176982611837565b915061177483611837565b9250817fffffffffffffffffffffffffffffffffffffffffffffffffffffffffffffffff04831182151516156117ad576117ac611874565b5b828202905092915050565b60006117c382611837565b91506117ce83611837565b9250828210156117e1576117e0611874565b5b828203905092915050565b60006117f782611817565b9050919050565b60008115159050919050565b600081600f0b9050919050565b600073ffffffffffffffffffffffffffffffffffffffff82169050919050565b6000819050919050565b60005b8381101561185f578082015181840152602081019050611844565b8381111561186e576000848401525b50505050565b7f4e487b7100000000000000000000000000000000000000000000000000000000600052601160045260246000fd5b7f4e487b7100000000000000000000000000000000000000000000000000000000600052601260045260246000fd5b6000601f19601f8301169050919050565b7f416464726573733a20696e73756666696369656e742062616c616e636520666f60008201527f722063616c6c0000000000000000000000000000000000000000000000000000602082015250565b7f62616c616e6365206973206c6f77000000000000000000000000000000000000600082015250565b7f416464726573733a2063616c6c20746f206e6f6e2d636f6e7472616374000000600082015250565b7f5361666545524332303a204552433230206f7065726174696f6e20646964206e60008201527f6f74207375636365656400000000000000000000000000000000000000000000602082015250565b6119dc816117ec565b81146119e757600080fd5b50565b6119f3816117fe565b81146119fe57600080fd5b50565b611a0a81611837565b8114611a1557600080fd5b5056fea26469706673582212207176fbfe1b2f5cc6c6e99fba49bc6ce2b191c17930c02395891648e1dcecde8464736f6c63430008010033",
  "linkReferences": {},
  "deployedLinkReferences": {}
}