{
  "_format": "hh-sol-artifact-1",
  "contractName": "LiquidityPool",
  "sourceName": "contracts/LiquidityPool.sol",
  "abi": [
    {
      "inputs": [],
      "stateMutability": "nonpayable",
      "type": "constructor"
    },
    {
      "inputs": [
        {
          "internalType": "address",
          "name": "",
          "type": "address"
        }
      ],
      "name": "allInvestors",
      "outputs": [
        {
          "internalType": "address",
          "name": "investor",
          "type": "address"
        },
        {
          "internalType": "uint256",
          "name": "timestampOfDeposit",
          "type": "uint256"
        },
        {
          "internalType": "uint256",
          "name": "amountOfMoney",
          "type": "uint256"
        }
      ],
      "stateMutability": "view",
      "type": "function"
    },
    {
      "inputs": [
        {
          "internalType": "uint256",
          "name": "cdiInPercentualPoints",
          "type": "uint256"
        }
      ],
      "name": "changeCDIinterestRate",
      "outputs": [],
      "stateMutability": "nonpayable",
      "type": "function"
    },
    {
      "inputs": [],
      "name": "checkContractBalance",
      "outputs": [
        {
          "internalType": "uint256",
          "name": "",
          "type": "uint256"
        }
      ],
      "stateMutability": "view",
      "type": "function"
    },
    {
      "inputs": [],
      "name": "checkMyBalance",
      "outputs": [
        {
          "internalType": "uint256",
          "name": "",
          "type": "uint256"
        }
      ],
      "stateMutability": "view",
      "type": "function"
    },
    {
      "inputs": [],
      "name": "contractOwner",
      "outputs": [
        {
          "internalType": "address",
          "name": "",
          "type": "address"
        }
      ],
      "stateMutability": "view",
      "type": "function"
    },
    {
      "inputs": [],
      "name": "dailyCDIinPoints",
      "outputs": [
        {
          "internalType": "uint256",
          "name": "",
          "type": "uint256"
        }
      ],
      "stateMutability": "view",
      "type": "function"
    },
    {
      "inputs": [
        {
          "internalType": "uint256",
          "name": "valueEther",
          "type": "uint256"
        }
      ],
      "name": "etherToWei",
      "outputs": [
        {
          "internalType": "uint256",
          "name": "",
          "type": "uint256"
        }
      ],
      "stateMutability": "pure",
      "type": "function"
    },
    {
      "inputs": [
        {
          "internalType": "uint256",
          "name": "timestampOfDeposit",
          "type": "uint256"
        }
      ],
      "name": "getInterestSince",
      "outputs": [
        {
          "internalType": "int128",
          "name": "",
          "type": "int128"
        }
      ],
      "stateMutability": "view",
      "type": "function"
    },
    {
      "inputs": [],
      "name": "getMoneyBackDebug",
      "outputs": [],
      "stateMutability": "nonpayable",
      "type": "function"
    },
    {
      "inputs": [],
      "name": "invest",
      "outputs": [],
      "stateMutability": "payable",
      "type": "function"
    },
    {
      "inputs": [
        {
          "internalType": "uint256",
          "name": "valueWei",
          "type": "uint256"
        }
      ],
      "name": "weiToEther",
      "outputs": [
        {
          "internalType": "uint256",
          "name": "",
          "type": "uint256"
        }
      ],
      "stateMutability": "pure",
      "type": "function"
    },
    {
      "inputs": [
        {
          "internalType": "uint256",
          "name": "requestedValue",
          "type": "uint256"
        }
      ],
      "name": "withdrawTokens",
      "outputs": [],
      "stateMutability": "nonpayable",
      "type": "function"
    }
  ],
  "bytecode": "0x608060405261bf8d6001556201518060035534801561001d57600080fd5b50336000806101000a81548173ffffffffffffffffffffffffffffffffffffffff021916908373ffffffffffffffffffffffffffffffffffffffff16021790555061100e8061006d6000396000f3fe6080604052600436106100a75760003560e01c8063cea9441011610064578063cea94410146101bc578063d0eff891146101fb578063d8916bb914610238578063e8b5e51f14610275578063ebdf983a1461027f578063f22f006214610296576100a7565b80630a2d8c75146100ac578063315a095d146100e957806350312c9e1461011257806396a2e6871461013d578063b37d61f814610166578063ce606ee014610191575b600080fd5b3480156100b857600080fd5b506100d360048036038101906100ce9190610d10565b6102c1565b6040516100e09190610db8565b60405180910390f35b3480156100f557600080fd5b50610110600480360381019061010b9190610d10565b610328565b005b34801561011e57600080fd5b50610127610473565b6040516101349190610dd3565b60405180910390f35b34801561014957600080fd5b50610164600480360381019061015f9190610d10565b61047b565b005b34801561017257600080fd5b5061017b6104dd565b6040516101889190610dd3565b60405180910390f35b34801561019d57600080fd5b506101a661052c565b6040516101b39190610d66565b60405180910390f35b3480156101c857600080fd5b506101e360048036038101906101de9190610ce7565b610550565b6040516101f293929190610d81565b60405180910390f35b34801561020757600080fd5b50610222600480360381019061021d9190610d10565b61059a565b60405161022f9190610dd3565b60405180910390f35b34801561024457600080fd5b5061025f600480360381019061025a9190610d10565b6105b7565b60405161026c9190610dd3565b60405180910390f35b61027d6105d4565b005b34801561028b57600080fd5b50610294610793565b005b3480156102a257600080fd5b506102ab6107dc565b6040516102b89190610dd3565b60405180910390f35b600080429050600083826102d59190610ecf565b9050600060fc9050600061031a6103146102ef60016107e2565b61030f6102fd6001546107e2565b61030a6305f5e1006107e2565b610805565b6108b5565b8361091c565b905080945050505050919050565b6000600260003373ffffffffffffffffffffffffffffffffffffffff1673ffffffffffffffffffffffffffffffffffffffff1681526020019081526020016000209050600081600201541161037c57600080fd5b806002015461038a8361059a565b1061039457600080fd5b60006103a382600101546102c1565b905060006103b483600201546107e2565b905060006103ca6103c58484610c31565b610c9c565b67ffffffffffffffff169050600085826103e49190610ecf565b905060008560000160009054906101000a900473ffffffffffffffffffffffffffffffffffffffff16905060008173ffffffffffffffffffffffffffffffffffffffff166108fc6104348a6105b7565b9081150290604051600060405180830381858888f1935050505090508015610469578287600201819055504287600101819055505b5050505050505050565b600047905090565b60008054906101000a900473ffffffffffffffffffffffffffffffffffffffff1673ffffffffffffffffffffffffffffffffffffffff163373ffffffffffffffffffffffffffffffffffffffff16146104d357600080fd5b8060018190555050565b600080600260003373ffffffffffffffffffffffffffffffffffffffff1673ffffffffffffffffffffffffffffffffffffffff1681526020019081526020016000206002015490508091505090565b60008054906101000a900473ffffffffffffffffffffffffffffffffffffffff1681565b60026020528060005260406000206000915090508060000160009054906101000a900473ffffffffffffffffffffffffffffffffffffffff16908060010154908060020154905083565b6000670de0b6b3a7640000826105b09190610e44565b9050919050565b6000670de0b6b3a7640000826105cd9190610e75565b9050919050565b6000600260003373ffffffffffffffffffffffffffffffffffffffff1673ffffffffffffffffffffffffffffffffffffffff1681526020019081526020016000206040518060600160405290816000820160009054906101000a900473ffffffffffffffffffffffffffffffffffffffff1673ffffffffffffffffffffffffffffffffffffffff1673ffffffffffffffffffffffffffffffffffffffff168152602001600182015481526020016002820154815250509050600080826020015111156106dd5760006106a983602001516102c1565b905060006106ba84604001516107e2565b90506106ce6106c98383610c31565b610c9c565b67ffffffffffffffff16925050505b60008190506000600260003373ffffffffffffffffffffffffffffffffffffffff1673ffffffffffffffffffffffffffffffffffffffff1681526020019081526020016000209050338160000160006101000a81548173ffffffffffffffffffffffffffffffffffffffff021916908373ffffffffffffffffffffffffffffffffffffffff1602179055504281600101819055508161077b3461059a565b6107859190610dee565b816002018190555050505050565b3373ffffffffffffffffffffffffffffffffffffffff166108fc479081150290604051600060405180830381858888f193505050501580156107d9573d6000803e3d6000fd5b50565b60015481565b6000677fffffffffffffff8211156107f957600080fd5b604082901b9050919050565b60008082600f0b141561081757600080fd5b600082600f0b604085600f0b901b81610859577f4e487b7100000000000000000000000000000000000000000000000000000000600052601260045260246000fd5b0590507fffffffffffffffffffffffffffffffff80000000000000000000000000000000600f0b81121580156108a257506f7fffffffffffffffffffffffffffffff600f0b8113155b6108ab57600080fd5b8091505092915050565b60008082600f0b84600f0b0190507fffffffffffffffffffffffffffffffff80000000000000000000000000000000600f0b811215801561090957506f7fffffffffffffffffffffffffffffff600f0b8113155b61091257600080fd5b8091505092915050565b600080600084600f0b12801561093457506001808416145b905060008085600f0b12610948578461094d565b846000035b6fffffffffffffffffffffffffffffffff16905060007001000000000000000000000000000000009050680100000000000000008211610a2757603f82901b91505b60008514610a1b57600060018616146109ac57607f828202901c90505b607f828302901c9150600060028616146109ca57607f828202901c90505b607f828302901c9150600060048616146109e857607f828202901c90505b607f828302901c915060006008861614610a0657607f828202901c90505b607f828302901c9150600485901c945061098f565b604081901c9050610bc1565b6000603f90506c01000000000000000000000000831015610a5057602083901b92506020810390505b6e010000000000000000000000000000831015610a7557601083901b92506010810390505b6f01000000000000000000000000000000831015610a9b57600883901b92506008810390505b6f10000000000000000000000000000000831015610ac157600483901b92506004810390505b6f40000000000000000000000000000000831015610ae757600283901b92506002810390505b6f80000000000000000000000000000000831015610b0d57600183901b92506001810390505b60005b60008714610ba85760408210610b2557600080fd5b60006001881614610b6657607f848402901c92508181019050700100000000000000000000000000000000831115610b6557600183901c92506001810190505b5b607f848502901c9350600182901b91507001000000000000000000000000000000008410610b9c57600184901c93506001820191505b600187901c9650610b10565b60408110610bb557600080fd5b8060400383901c925050505b600083610bce5781610bd3565b816000035b90507fffffffffffffffffffffffffffffffff80000000000000000000000000000000600f0b8112158015610c1b57506f7fffffffffffffffffffffffffffffff600f0b8113155b610c2457600080fd5b8094505050505092915050565b600080604083600f0b85600f0b02901d90507fffffffffffffffffffffffffffffffff80000000000000000000000000000000600f0b8112158015610c8957506f7fffffffffffffffffffffffffffffff600f0b8113155b610c9257600080fd5b8091505092915050565b60008082600f0b1215610cae57600080fd5b604082600f0b901d9050919050565b600081359050610ccc81610faa565b92915050565b600081359050610ce181610fc1565b92915050565b600060208284031215610cf957600080fd5b6000610d0784828501610cbd565b91505092915050565b600060208284031215610d2257600080fd5b6000610d3084828501610cd2565b91505092915050565b610d4281610f03565b82525050565b610d5181610f15565b82525050565b610d6081610f42565b82525050565b6000602082019050610d7b6000830184610d39565b92915050565b6000606082019050610d966000830186610d39565b610da36020830185610d57565b610db06040830184610d57565b949350505050565b6000602082019050610dcd6000830184610d48565b92915050565b6000602082019050610de86000830184610d57565b92915050565b6000610df982610f42565b9150610e0483610f42565b9250827fffffffffffffffffffffffffffffffffffffffffffffffffffffffffffffffff03821115610e3957610e38610f4c565b5b828201905092915050565b6000610e4f82610f42565b9150610e5a83610f42565b925082610e6a57610e69610f7b565b5b828204905092915050565b6000610e8082610f42565b9150610e8b83610f42565b9250817fffffffffffffffffffffffffffffffffffffffffffffffffffffffffffffffff0483118215151615610ec457610ec3610f4c565b5b828202905092915050565b6000610eda82610f42565b9150610ee583610f42565b925082821015610ef857610ef7610f4c565b5b828203905092915050565b6000610f0e82610f22565b9050919050565b600081600f0b9050919050565b600073ffffffffffffffffffffffffffffffffffffffff82169050919050565b6000819050919050565b7f4e487b7100000000000000000000000000000000000000000000000000000000600052601160045260246000fd5b7f4e487b7100000000000000000000000000000000000000000000000000000000600052601260045260246000fd5b610fb381610f03565b8114610fbe57600080fd5b50565b610fca81610f42565b8114610fd557600080fd5b5056fea26469706673582212205cb63536dd00c83f0ee3aa5dd48974073a941438995f5ce21deed98de0224ad164736f6c63430008000033",
  "linkReferences": {},
  "deployedLinkReferences": {}
}