{
  "_format": "hh-sol-artifact-1",
  "contractName": "TokenizedVault",
  "sourceName": "contracts/TokenizedVault.sol",
  "abi": [
    {
      "inputs": [
        {
          "internalType": "contract ERC20",
          "name": "_underlying",
          "type": "address"
        },
        {
          "internalType": "string",
          "name": "_name",
          "type": "string"
        },
        {
          "internalType": "string",
          "name": "_symbol",
          "type": "string"
        }
      ],
      "stateMutability": "nonpayable",
      "type": "constructor"
    },
    {
      "anonymous": false,
      "inputs": [
        {
          "indexed": true,
          "internalType": "address",
          "name": "owner",
          "type": "address"
        },
        {
          "indexed": true,
          "internalType": "address",
          "name": "spender",
          "type": "address"
        },
        {
          "indexed": false,
          "internalType": "uint256",
          "name": "amount",
          "type": "uint256"
        }
      ],
      "name": "Approval",
      "type": "event"
    },
    {
      "anonymous": false,
      "inputs": [
        {
          "indexed": false,
          "internalType": "address",
          "name": "caller",
          "type": "address"
        },
        {
          "indexed": false,
          "internalType": "uint256",
          "name": "amt",
          "type": "uint256"
        }
      ],
      "name": "Deposit",
      "type": "event"
    },
    {
      "anonymous": false,
      "inputs": [
        {
          "indexed": true,
          "internalType": "address",
          "name": "from",
          "type": "address"
        },
        {
          "indexed": true,
          "internalType": "address",
          "name": "to",
          "type": "address"
        },
        {
          "indexed": false,
          "internalType": "uint256",
          "name": "amount",
          "type": "uint256"
        }
      ],
      "name": "Transfer",
      "type": "event"
    },
    {
      "anonymous": false,
      "inputs": [
        {
          "indexed": false,
          "internalType": "address",
          "name": "caller",
          "type": "address"
        },
        {
          "indexed": false,
          "internalType": "uint256",
          "name": "amt",
          "type": "uint256"
        },
        {
          "indexed": false,
          "internalType": "uint256",
          "name": "per",
          "type": "uint256"
        }
      ],
      "name": "Withdraw",
      "type": "event"
    },
    {
      "inputs": [],
      "name": "DOMAIN_SEPARATOR",
      "outputs": [
        {
          "internalType": "bytes32",
          "name": "",
          "type": "bytes32"
        }
      ],
      "stateMutability": "view",
      "type": "function"
    },
    {
      "inputs": [
        {
          "internalType": "address",
          "name": "",
          "type": "address"
        },
        {
          "internalType": "address",
          "name": "",
          "type": "address"
        }
      ],
      "name": "allowance",
      "outputs": [
        {
          "internalType": "uint256",
          "name": "",
          "type": "uint256"
        }
      ],
      "stateMutability": "view",
      "type": "function"
    },
    {
      "inputs": [
        {
          "internalType": "address",
          "name": "spender",
          "type": "address"
        },
        {
          "internalType": "uint256",
          "name": "amount",
          "type": "uint256"
        }
      ],
      "name": "approve",
      "outputs": [
        {
          "internalType": "bool",
          "name": "",
          "type": "bool"
        }
      ],
      "stateMutability": "nonpayable",
      "type": "function"
    },
    {
      "inputs": [],
      "name": "asset",
      "outputs": [
        {
          "internalType": "contract ERC20",
          "name": "",
          "type": "address"
        }
      ],
      "stateMutability": "view",
      "type": "function"
    },
    {
      "inputs": [
        {
          "internalType": "address",
          "name": "",
          "type": "address"
        }
      ],
      "name": "balanceOf",
      "outputs": [
        {
          "internalType": "uint256",
          "name": "",
          "type": "uint256"
        }
      ],
      "stateMutability": "view",
      "type": "function"
    },
    {
      "inputs": [],
      "name": "decimals",
      "outputs": [
        {
          "internalType": "uint8",
          "name": "",
          "type": "uint8"
        }
      ],
      "stateMutability": "view",
      "type": "function"
    },
    {
      "inputs": [
        {
          "internalType": "uint256",
          "name": "assets",
          "type": "uint256"
        }
      ],
      "name": "deposit",
      "outputs": [],
      "stateMutability": "nonpayable",
      "type": "function"
    },
    {
      "inputs": [],
      "name": "name",
      "outputs": [
        {
          "internalType": "string",
          "name": "",
          "type": "string"
        }
      ],
      "stateMutability": "view",
      "type": "function"
    },
    {
      "inputs": [
        {
          "internalType": "address",
          "name": "",
          "type": "address"
        }
      ],
      "name": "nonces",
      "outputs": [
        {
          "internalType": "uint256",
          "name": "",
          "type": "uint256"
        }
      ],
      "stateMutability": "view",
      "type": "function"
    },
    {
      "inputs": [
        {
          "internalType": "address",
          "name": "owner",
          "type": "address"
        },
        {
          "internalType": "address",
          "name": "spender",
          "type": "address"
        },
        {
          "internalType": "uint256",
          "name": "value",
          "type": "uint256"
        },
        {
          "internalType": "uint256",
          "name": "deadline",
          "type": "uint256"
        },
        {
          "internalType": "uint8",
          "name": "v",
          "type": "uint8"
        },
        {
          "internalType": "bytes32",
          "name": "r",
          "type": "bytes32"
        },
        {
          "internalType": "bytes32",
          "name": "s",
          "type": "bytes32"
        }
      ],
      "name": "permit",
      "outputs": [],
      "stateMutability": "nonpayable",
      "type": "function"
    },
    {
      "inputs": [],
      "name": "symbol",
      "outputs": [
        {
          "internalType": "string",
          "name": "",
          "type": "string"
        }
      ],
      "stateMutability": "view",
      "type": "function"
    },
    {
      "inputs": [],
      "name": "totalAssets",
      "outputs": [
        {
          "internalType": "uint256",
          "name": "",
          "type": "uint256"
        }
      ],
      "stateMutability": "view",
      "type": "function"
    },
    {
      "inputs": [],
      "name": "totalSupply",
      "outputs": [
        {
          "internalType": "uint256",
          "name": "",
          "type": "uint256"
        }
      ],
      "stateMutability": "view",
      "type": "function"
    },
    {
      "inputs": [
        {
          "internalType": "address",
          "name": "to",
          "type": "address"
        },
        {
          "internalType": "uint256",
          "name": "amount",
          "type": "uint256"
        }
      ],
      "name": "transfer",
      "outputs": [
        {
          "internalType": "bool",
          "name": "",
          "type": "bool"
        }
      ],
      "stateMutability": "nonpayable",
      "type": "function"
    },
    {
      "inputs": [
        {
          "internalType": "address",
          "name": "from",
          "type": "address"
        },
        {
          "internalType": "address",
          "name": "to",
          "type": "address"
        },
        {
          "internalType": "uint256",
          "name": "amount",
          "type": "uint256"
        }
      ],
      "name": "transferFrom",
      "outputs": [
        {
          "internalType": "bool",
          "name": "",
          "type": "bool"
        }
      ],
      "stateMutability": "nonpayable",
      "type": "function"
    },
    {
      "inputs": [
        {
          "internalType": "uint256",
          "name": "shares",
          "type": "uint256"
        },
        {
          "internalType": "address",
          "name": "receiver",
          "type": "address"
        }
      ],
      "name": "withdraw",
      "outputs": [],
      "stateMutability": "nonpayable",
      "type": "function"
    }
  ],
  "bytecode": "0x6101006040523480156200001257600080fd5b506040516200260b3803806200260b8339818101604052810190620000389190620002aa565b8181600682600090805190602001906200005492919062000171565b5081600190805190602001906200006d92919062000171565b508060ff1660808160ff1660f81b815250504660a0818152505062000097620000e160201b60201c565b60c081815250505050508273ffffffffffffffffffffffffffffffffffffffff1660e08173ffffffffffffffffffffffffffffffffffffffff1660601b815250505050506200066c565b60007f8b73c3c69bb8fe3d512ecc4cf759cc79239f7b179b0ffacaa9a75d522b39400f6000604051620001159190620003f0565b60405180910390207fc89efdaa54c0f20c7adf612882df0950f5a951637e0307cdcb4c672f298b8bc646306040516020016200015695949392919062000409565b60405160208183030381529060405280519060200120905090565b8280546200017f9062000577565b90600052602060002090601f016020900481019282620001a35760008555620001ef565b82601f10620001be57805160ff1916838001178555620001ef565b82800160010185558215620001ef579182015b82811115620001ee578251825591602001919060010190620001d1565b5b509050620001fe919062000202565b5090565b5b808211156200021d57600081600090555060010162000203565b5090565b60006200023862000232846200048f565b62000466565b9050828152602081018484840111156200025157600080fd5b6200025e84828562000541565b509392505050565b600081519050620002778162000652565b92915050565b600082601f8301126200028f57600080fd5b8151620002a184826020860162000221565b91505092915050565b600080600060608486031215620002c057600080fd5b6000620002d08682870162000266565b935050602084015167ffffffffffffffff811115620002ee57600080fd5b620002fc868287016200027d565b925050604084015167ffffffffffffffff8111156200031a57600080fd5b62000328868287016200027d565b9150509250925092565b6200033d81620004e5565b82525050565b6200034e81620004f9565b82525050565b60008154620003638162000577565b6200036f8186620004da565b945060018216600081146200038d57600181146200039f57620003d6565b60ff19831686528186019350620003d6565b620003aa85620004c5565b60005b83811015620003ce57815481890152600182019150602081019050620003ad565b838801955050505b50505092915050565b620003ea8162000537565b82525050565b6000620003fe828462000354565b915081905092915050565b600060a08201905062000420600083018862000343565b6200042f602083018762000343565b6200043e604083018662000343565b6200044d6060830185620003df565b6200045c608083018462000332565b9695505050505050565b60006200047262000485565b9050620004808282620005ad565b919050565b6000604051905090565b600067ffffffffffffffff821115620004ad57620004ac62000612565b5b620004b88262000641565b9050602081019050919050565b60008190508160005260206000209050919050565b600081905092915050565b6000620004f28262000517565b9050919050565b6000819050919050565b60006200051082620004e5565b9050919050565b600073ffffffffffffffffffffffffffffffffffffffff82169050919050565b6000819050919050565b60005b838110156200056157808201518184015260208101905062000544565b8381111562000571576000848401525b50505050565b600060028204905060018216806200059057607f821691505b60208210811415620005a757620005a6620005e3565b5b50919050565b620005b88262000641565b810181811067ffffffffffffffff82111715620005da57620005d962000612565b5b80604052505050565b7f4e487b7100000000000000000000000000000000000000000000000000000000600052602260045260246000fd5b7f4e487b7100000000000000000000000000000000000000000000000000000000600052604160045260246000fd5b6000601f19601f8301169050919050565b6200065d8162000503565b81146200066957600080fd5b50565b60805160f81c60a05160c05160e05160601c611f4a620006c16000396000818161035a0152818161040f0152818161090e0152610b47015260006108e7015260006108b30152600061088d0152611f4a6000f3fe608060405234801561001057600080fd5b50600436106100ff5760003560e01c806338d52e0f11610097578063a9059cbb11610066578063a9059cbb146102b2578063b6b55f25146102e2578063d505accf146102fe578063dd62ed3e1461031a576100ff565b806338d52e0f1461021657806370a08231146102345780637ecebe001461026457806395d89b4114610294576100ff565b806318160ddd116100d357806318160ddd1461018c57806323b872dd146101aa578063313ce567146101da5780633644e515146101f8576100ff565b8062f714ce1461010457806301e1d1141461012057806306fdde031461013e578063095ea7b31461015c575b600080fd5b61011e600480360381019061011991906115b2565b61034a565b005b61012861040b565b6040516101359190611ab2565b60405180910390f35b6101466104bb565b6040516101539190611a10565b60405180910390f35b610176600480360381019061017191906114fb565b610549565b60405161018391906118c6565b60405180910390f35b61019461063b565b6040516101a19190611ab2565b60405180910390f35b6101c460048036038101906101bf919061140e565b610641565b6040516101d191906118c6565b60405180910390f35b6101e261088b565b6040516101ef9190611acd565b60405180910390f35b6102006108af565b60405161020d91906118e1565b60405180910390f35b61021e61090c565b60405161022b91906119f5565b60405180910390f35b61024e600480360381019061024991906113a9565b610930565b60405161025b9190611ab2565b60405180910390f35b61027e600480360381019061027991906113a9565b610948565b60405161028b9190611ab2565b60405180910390f35b61029c610960565b6040516102a99190611a10565b60405180910390f35b6102cc60048036038101906102c791906114fb565b6109ee565b6040516102d991906118c6565b60405180910390f35b6102fc60048036038101906102f79190611560565b610b02565b005b6103186004803603810190610313919061145d565b610c91565b005b610334600480360381019061032f91906113d2565b610f8a565b6040516103419190611ab2565b60405180910390f35b60006103568383610faf565b90507f000000000000000000000000000000000000000000000000000000000000000073ffffffffffffffffffffffffffffffffffffffff1663a9059cbb83836040518363ffffffff1660e01b81526004016103b3929190611866565b602060405180830381600087803b1580156103cd57600080fd5b505af11580156103e1573d6000803e3d6000fd5b505050506040513d601f19601f820116820180604052508101906104059190611537565b50505050565b60007f000000000000000000000000000000000000000000000000000000000000000073ffffffffffffffffffffffffffffffffffffffff166370a08231306040518263ffffffff1660e01b81526004016104669190611814565b60206040518083038186803b15801561047e57600080fd5b505afa158015610492573d6000803e3d6000fd5b505050506040513d601f19601f820116820180604052508101906104b69190611589565b905090565b600080546104c890611cfa565b80601f01602080910402602001604051908101604052809291908181526020018280546104f490611cfa565b80156105415780601f1061051657610100808354040283529160200191610541565b820191906000526020600020905b81548152906001019060200180831161052457829003601f168201915b505050505081565b600081600460003373ffffffffffffffffffffffffffffffffffffffff1673ffffffffffffffffffffffffffffffffffffffff16815260200190815260200160002060008573ffffffffffffffffffffffffffffffffffffffff1673ffffffffffffffffffffffffffffffffffffffff168152602001908152602001600020819055508273ffffffffffffffffffffffffffffffffffffffff163373ffffffffffffffffffffffffffffffffffffffff167f8c5be1e5ebec7d5bd14f71427d1e84f3dd0314c0f7b2291e5b200ac8c7c3b925846040516106299190611ab2565b60405180910390a36001905092915050565b60025481565b600080600460008673ffffffffffffffffffffffffffffffffffffffff1673ffffffffffffffffffffffffffffffffffffffff16815260200190815260200160002060003373ffffffffffffffffffffffffffffffffffffffff1673ffffffffffffffffffffffffffffffffffffffff1681526020019081526020016000205490507fffffffffffffffffffffffffffffffffffffffffffffffffffffffffffffffff81146107775782816106f69190611c10565b600460008773ffffffffffffffffffffffffffffffffffffffff1673ffffffffffffffffffffffffffffffffffffffff16815260200190815260200160002060003373ffffffffffffffffffffffffffffffffffffffff1673ffffffffffffffffffffffffffffffffffffffff168152602001908152602001600020819055505b82600360008773ffffffffffffffffffffffffffffffffffffffff1673ffffffffffffffffffffffffffffffffffffffff16815260200190815260200160002060008282546107c69190611c10565b9250508190555082600360008673ffffffffffffffffffffffffffffffffffffffff1673ffffffffffffffffffffffffffffffffffffffff168152602001908152602001600020600082825401925050819055508373ffffffffffffffffffffffffffffffffffffffff168573ffffffffffffffffffffffffffffffffffffffff167fddf252ad1be2c89b69c2b068fc378daa952ba7f163c4a11628f55a4df523b3ef856040516108779190611ab2565b60405180910390a360019150509392505050565b7f000000000000000000000000000000000000000000000000000000000000000081565b60007f000000000000000000000000000000000000000000000000000000000000000046146108e5576108e06110ff565b610907565b7f00000000000000000000000000000000000000000000000000000000000000005b905090565b7f000000000000000000000000000000000000000000000000000000000000000081565b60036020528060005260406000206000915090505481565b60056020528060005260406000206000915090505481565b6001805461096d90611cfa565b80601f016020809104026020016040519081016040528092919081815260200182805461099990611cfa565b80156109e65780601f106109bb576101008083540402835291602001916109e6565b820191906000526020600020905b8154815290600101906020018083116109c957829003601f168201915b505050505081565b600081600360003373ffffffffffffffffffffffffffffffffffffffff1673ffffffffffffffffffffffffffffffffffffffff1681526020019081526020016000206000828254610a3f9190611c10565b9250508190555081600360008573ffffffffffffffffffffffffffffffffffffffff1673ffffffffffffffffffffffffffffffffffffffff168152602001908152602001600020600082825401925050819055508273ffffffffffffffffffffffffffffffffffffffff163373ffffffffffffffffffffffffffffffffffffffff167fddf252ad1be2c89b69c2b068fc378daa952ba7f163c4a11628f55a4df523b3ef84604051610af09190611ab2565b60405180910390a36001905092915050565b60008111610b45576040517f08c379a0000000000000000000000000000000000000000000000000000000008152600401610b3c90611a72565b60405180910390fd5b7f000000000000000000000000000000000000000000000000000000000000000073ffffffffffffffffffffffffffffffffffffffff166323b872dd3330846040518463ffffffff1660e01b8152600401610ba29392919061182f565b602060405180830381600087803b158015610bbc57600080fd5b505af1158015610bd0573d6000803e3d6000fd5b505050506040513d601f19601f82011682018060405250810190610bf49190611537565b5080600660003373ffffffffffffffffffffffffffffffffffffffff1673ffffffffffffffffffffffffffffffffffffffff1681526020019081526020016000206000828254610c449190611b2f565b92505081905550610c55338261118b565b7fe1fffcc4923d04b559f4d29a8bfc6cda04eb5b0d3c460751c2402c5c5cc9109c3382604051610c86929190611866565b60405180910390a150565b42841015610cd4576040517f08c379a0000000000000000000000000000000000000000000000000000000008152600401610ccb90611a92565b60405180910390fd5b60006001610ce06108af565b7f6e71edae12b1b97f4d1f60370fef10105fa2faae0126114a169c64845d6126c98a8a8a600560008f73ffffffffffffffffffffffffffffffffffffffff1673ffffffffffffffffffffffffffffffffffffffff1681526020019081526020016000206000815480929190600101919050558b604051602001610d68969594939291906118fc565b60405160208183030381529060405280519060200120604051602001610d8f9291906117dd565b6040516020818303038152906040528051906020012085858560405160008152602001604052604051610dc594939291906119b0565b6020604051602081039080840390855afa158015610de7573d6000803e3d6000fd5b505050602060405103519050600073ffffffffffffffffffffffffffffffffffffffff168173ffffffffffffffffffffffffffffffffffffffff1614158015610e5b57508773ffffffffffffffffffffffffffffffffffffffff168173ffffffffffffffffffffffffffffffffffffffff16145b610e9a576040517f08c379a0000000000000000000000000000000000000000000000000000000008152600401610e9190611a52565b60405180910390fd5b85600460008373ffffffffffffffffffffffffffffffffffffffff1673ffffffffffffffffffffffffffffffffffffffff16815260200190815260200160002060008973ffffffffffffffffffffffffffffffffffffffff1673ffffffffffffffffffffffffffffffffffffffff16815260200190815260200160002081905550508573ffffffffffffffffffffffffffffffffffffffff168773ffffffffffffffffffffffffffffffffffffffff167f8c5be1e5ebec7d5bd14f71427d1e84f3dd0314c0f7b2291e5b200ac8c7c3b92587604051610f799190611ab2565b60405180910390a350505050505050565b6004602052816000526040600020602052806000526040600020600091509150505481565b600080600660003373ffffffffffffffffffffffffffffffffffffffff1673ffffffffffffffffffffffffffffffffffffffff1681526020019081526020016000205411611032576040517f08c379a000000000000000000000000000000000000000000000000000000000815260040161102990611a32565b60405180910390fd5b82600660003373ffffffffffffffffffffffffffffffffffffffff1673ffffffffffffffffffffffffffffffffffffffff16815260200190815260200160002060008282546110819190611c10565b925050819055506000606484600a6110999190611bb6565b6110a39190611b85565b90506110af338561125b565b80846110bb9190611b2f565b91507ff279e6a1f5e320cca91135676d9cb6e44ca8a08c0b88342bcdb1144f6511b5688383836040516110f09392919061188f565b60405180910390a15092915050565b60007f8b73c3c69bb8fe3d512ecc4cf759cc79239f7b179b0ffacaa9a75d522b39400f600060405161113191906117c6565b60405180910390207fc89efdaa54c0f20c7adf612882df0950f5a951637e0307cdcb4c672f298b8bc6463060405160200161117095949392919061195d565b60405160208183030381529060405280519060200120905090565b806002600082825461119d9190611b2f565b9250508190555080600360008473ffffffffffffffffffffffffffffffffffffffff1673ffffffffffffffffffffffffffffffffffffffff168152602001908152602001600020600082825401925050819055508173ffffffffffffffffffffffffffffffffffffffff16600073ffffffffffffffffffffffffffffffffffffffff167fddf252ad1be2c89b69c2b068fc378daa952ba7f163c4a11628f55a4df523b3ef8360405161124f9190611ab2565b60405180910390a35050565b80600360008473ffffffffffffffffffffffffffffffffffffffff1673ffffffffffffffffffffffffffffffffffffffff16815260200190815260200160002060008282546112aa9190611c10565b9250508190555080600260008282540392505081905550600073ffffffffffffffffffffffffffffffffffffffff168273ffffffffffffffffffffffffffffffffffffffff167fddf252ad1be2c89b69c2b068fc378daa952ba7f163c4a11628f55a4df523b3ef8360405161131f9190611ab2565b60405180910390a35050565b60008135905061133a81611ea1565b92915050565b60008151905061134f81611eb8565b92915050565b60008135905061136481611ecf565b92915050565b60008135905061137981611ee6565b92915050565b60008151905061138e81611ee6565b92915050565b6000813590506113a381611efd565b92915050565b6000602082840312156113bb57600080fd5b60006113c98482850161132b565b91505092915050565b600080604083850312156113e557600080fd5b60006113f38582860161132b565b92505060206114048582860161132b565b9150509250929050565b60008060006060848603121561142357600080fd5b60006114318682870161132b565b93505060206114428682870161132b565b92505060406114538682870161136a565b9150509250925092565b600080600080600080600060e0888a03121561147857600080fd5b60006114868a828b0161132b565b97505060206114978a828b0161132b565b96505060406114a88a828b0161136a565b95505060606114b98a828b0161136a565b94505060806114ca8a828b01611394565b93505060a06114db8a828b01611355565b92505060c06114ec8a828b01611355565b91505092959891949750929550565b6000806040838503121561150e57600080fd5b600061151c8582860161132b565b925050602061152d8582860161136a565b9150509250929050565b60006020828403121561154957600080fd5b600061155784828501611340565b91505092915050565b60006020828403121561157257600080fd5b60006115808482850161136a565b91505092915050565b60006020828403121561159b57600080fd5b60006115a98482850161137f565b91505092915050565b600080604083850312156115c557600080fd5b60006115d38582860161136a565b92505060206115e48582860161132b565b9150509250929050565b6115f781611c44565b82525050565b61160681611c56565b82525050565b61161581611c62565b82525050565b61162c61162782611c62565b611d2c565b82525050565b6000815461163f81611cfa565b6116498186611b08565b945060018216600081146116645760018114611675576116a8565b60ff198316865281860193506116a8565b61167e85611ae8565b60005b838110156116a057815481890152600182019150602081019050611681565b838801955050505b50505092915050565b6116ba81611ca3565b82525050565b60006116cb82611afd565b6116d58185611b13565b93506116e5818560208601611cc7565b6116ee81611dc3565b840191505092915050565b6000611706600283611b24565b915061171182611dd4565b600282019050919050565b6000611729601283611b13565b915061173482611dfd565b602082019050919050565b600061174c600e83611b13565b915061175782611e26565b602082019050919050565b600061176f601683611b13565b915061177a82611e4f565b602082019050919050565b6000611792601783611b13565b915061179d82611e78565b602082019050919050565b6117b181611c8c565b82525050565b6117c081611c96565b82525050565b60006117d28284611632565b915081905092915050565b60006117e8826116f9565b91506117f4828561161b565b602082019150611804828461161b565b6020820191508190509392505050565b600060208201905061182960008301846115ee565b92915050565b600060608201905061184460008301866115ee565b61185160208301856115ee565b61185e60408301846117a8565b949350505050565b600060408201905061187b60008301856115ee565b61188860208301846117a8565b9392505050565b60006060820190506118a460008301866115ee565b6118b160208301856117a8565b6118be60408301846117a8565b949350505050565b60006020820190506118db60008301846115fd565b92915050565b60006020820190506118f6600083018461160c565b92915050565b600060c082019050611911600083018961160c565b61191e60208301886115ee565b61192b60408301876115ee565b61193860608301866117a8565b61194560808301856117a8565b61195260a08301846117a8565b979650505050505050565b600060a082019050611972600083018861160c565b61197f602083018761160c565b61198c604083018661160c565b61199960608301856117a8565b6119a660808301846115ee565b9695505050505050565b60006080820190506119c5600083018761160c565b6119d260208301866117b7565b6119df604083018561160c565b6119ec606083018461160c565b95945050505050565b6000602082019050611a0a60008301846116b1565b92915050565b60006020820190508181036000830152611a2a81846116c0565b905092915050565b60006020820190508181036000830152611a4b8161171c565b9050919050565b60006020820190508181036000830152611a6b8161173f565b9050919050565b60006020820190508181036000830152611a8b81611762565b9050919050565b60006020820190508181036000830152611aab81611785565b9050919050565b6000602082019050611ac760008301846117a8565b92915050565b6000602082019050611ae260008301846117b7565b92915050565b60008190508160005260206000209050919050565b600081519050919050565b600081905092915050565b600082825260208201905092915050565b600081905092915050565b6000611b3a82611c8c565b9150611b4583611c8c565b9250827fffffffffffffffffffffffffffffffffffffffffffffffffffffffffffffffff03821115611b7a57611b79611d36565b5b828201905092915050565b6000611b9082611c8c565b9150611b9b83611c8c565b925082611bab57611baa611d65565b5b828204905092915050565b6000611bc182611c8c565b9150611bcc83611c8c565b9250817fffffffffffffffffffffffffffffffffffffffffffffffffffffffffffffffff0483118215151615611c0557611c04611d36565b5b828202905092915050565b6000611c1b82611c8c565b9150611c2683611c8c565b925082821015611c3957611c38611d36565b5b828203905092915050565b6000611c4f82611c6c565b9050919050565b60008115159050919050565b6000819050919050565b600073ffffffffffffffffffffffffffffffffffffffff82169050919050565b6000819050919050565b600060ff82169050919050565b6000611cae82611cb5565b9050919050565b6000611cc082611c6c565b9050919050565b60005b83811015611ce5578082015181840152602081019050611cca565b83811115611cf4576000848401525b50505050565b60006002820490506001821680611d1257607f821691505b60208210811415611d2657611d25611d94565b5b50919050565b6000819050919050565b7f4e487b7100000000000000000000000000000000000000000000000000000000600052601160045260246000fd5b7f4e487b7100000000000000000000000000000000000000000000000000000000600052601260045260246000fd5b7f4e487b7100000000000000000000000000000000000000000000000000000000600052602260045260246000fd5b6000601f19601f8301169050919050565b7f1901000000000000000000000000000000000000000000000000000000000000600082015250565b7f4e6f74206120736861726520686f6c6465720000000000000000000000000000600082015250565b7f494e56414c49445f5349474e4552000000000000000000000000000000000000600082015250565b7f4465706f736974206c657373207468616e205a65726f00000000000000000000600082015250565b7f5045524d49545f444541444c494e455f45585049524544000000000000000000600082015250565b611eaa81611c44565b8114611eb557600080fd5b50565b611ec181611c56565b8114611ecc57600080fd5b50565b611ed881611c62565b8114611ee357600080fd5b50565b611eef81611c8c565b8114611efa57600080fd5b50565b611f0681611c96565b8114611f1157600080fd5b5056fea2646970667358221220e6b3123ae26f328bfbde3cea06927ebf300502a5a8a160776c43a05663b9686b64736f6c63430008010033",
  "linkReferences": {},
  "deployedLinkReferences": {}
}