{
  "_format": "hh-sol-artifact-1",
  "contractName": "TokenizedVault",
  "sourceName": "contracts/TokenizedVault.sol",
  "abi": [
    {
      "inputs": [
        {
          "internalType": "contract ERC20",
          "name": "_underlying",
          "type": "address"
        },
        {
          "internalType": "string",
          "name": "_name",
          "type": "string"
        },
        {
          "internalType": "string",
          "name": "_symbol",
          "type": "string"
        }
      ],
      "stateMutability": "nonpayable",
      "type": "constructor"
    },
    {
      "anonymous": false,
      "inputs": [
        {
          "indexed": true,
          "internalType": "address",
          "name": "owner",
          "type": "address"
        },
        {
          "indexed": true,
          "internalType": "address",
          "name": "spender",
          "type": "address"
        },
        {
          "indexed": false,
          "internalType": "uint256",
          "name": "amount",
          "type": "uint256"
        }
      ],
      "name": "Approval",
      "type": "event"
    },
    {
      "anonymous": false,
      "inputs": [
        {
          "indexed": false,
          "internalType": "address",
          "name": "caller",
          "type": "address"
        },
        {
          "indexed": false,
          "internalType": "uint256",
          "name": "amt",
          "type": "uint256"
        }
      ],
      "name": "Deposit",
      "type": "event"
    },
    {
      "anonymous": false,
      "inputs": [
        {
          "indexed": true,
          "internalType": "address",
          "name": "from",
          "type": "address"
        },
        {
          "indexed": true,
          "internalType": "address",
          "name": "to",
          "type": "address"
        },
        {
          "indexed": false,
          "internalType": "uint256",
          "name": "amount",
          "type": "uint256"
        }
      ],
      "name": "Transfer",
      "type": "event"
    },
    {
      "anonymous": false,
      "inputs": [
        {
          "indexed": false,
          "internalType": "address",
          "name": "caller",
          "type": "address"
        },
        {
          "indexed": false,
          "internalType": "uint256",
          "name": "amt",
          "type": "uint256"
        },
        {
          "indexed": false,
          "internalType": "uint256",
          "name": "per",
          "type": "uint256"
        }
      ],
      "name": "Withdraw",
      "type": "event"
    },
    {
      "inputs": [],
      "name": "DOMAIN_SEPARATOR",
      "outputs": [
        {
          "internalType": "bytes32",
          "name": "",
          "type": "bytes32"
        }
      ],
      "stateMutability": "view",
      "type": "function"
    },
    {
      "inputs": [
        {
          "internalType": "address",
          "name": "",
          "type": "address"
        },
        {
          "internalType": "address",
          "name": "",
          "type": "address"
        }
      ],
      "name": "allowance",
      "outputs": [
        {
          "internalType": "uint256",
          "name": "",
          "type": "uint256"
        }
      ],
      "stateMutability": "view",
      "type": "function"
    },
    {
      "inputs": [
        {
          "internalType": "address",
          "name": "spender",
          "type": "address"
        },
        {
          "internalType": "uint256",
          "name": "amount",
          "type": "uint256"
        }
      ],
      "name": "approve",
      "outputs": [
        {
          "internalType": "bool",
          "name": "",
          "type": "bool"
        }
      ],
      "stateMutability": "nonpayable",
      "type": "function"
    },
    {
      "inputs": [],
      "name": "asset",
      "outputs": [
        {
          "internalType": "contract ERC20",
          "name": "",
          "type": "address"
        }
      ],
      "stateMutability": "view",
      "type": "function"
    },
    {
      "inputs": [
        {
          "internalType": "address",
          "name": "",
          "type": "address"
        }
      ],
      "name": "balanceOf",
      "outputs": [
        {
          "internalType": "uint256",
          "name": "",
          "type": "uint256"
        }
      ],
      "stateMutability": "view",
      "type": "function"
    },
    {
      "inputs": [],
      "name": "decimals",
      "outputs": [
        {
          "internalType": "uint8",
          "name": "",
          "type": "uint8"
        }
      ],
      "stateMutability": "view",
      "type": "function"
    },
    {
      "inputs": [
        {
          "internalType": "uint256",
          "name": "assets",
          "type": "uint256"
        }
      ],
      "name": "deposit",
      "outputs": [],
      "stateMutability": "nonpayable",
      "type": "function"
    },
    {
      "inputs": [],
      "name": "name",
      "outputs": [
        {
          "internalType": "string",
          "name": "",
          "type": "string"
        }
      ],
      "stateMutability": "view",
      "type": "function"
    },
    {
      "inputs": [
        {
          "internalType": "address",
          "name": "",
          "type": "address"
        }
      ],
      "name": "nonces",
      "outputs": [
        {
          "internalType": "uint256",
          "name": "",
          "type": "uint256"
        }
      ],
      "stateMutability": "view",
      "type": "function"
    },
    {
      "inputs": [
        {
          "internalType": "address",
          "name": "owner",
          "type": "address"
        },
        {
          "internalType": "address",
          "name": "spender",
          "type": "address"
        },
        {
          "internalType": "uint256",
          "name": "value",
          "type": "uint256"
        },
        {
          "internalType": "uint256",
          "name": "deadline",
          "type": "uint256"
        },
        {
          "internalType": "uint8",
          "name": "v",
          "type": "uint8"
        },
        {
          "internalType": "bytes32",
          "name": "r",
          "type": "bytes32"
        },
        {
          "internalType": "bytes32",
          "name": "s",
          "type": "bytes32"
        }
      ],
      "name": "permit",
      "outputs": [],
      "stateMutability": "nonpayable",
      "type": "function"
    },
    {
      "inputs": [],
      "name": "symbol",
      "outputs": [
        {
          "internalType": "string",
          "name": "",
          "type": "string"
        }
      ],
      "stateMutability": "view",
      "type": "function"
    },
    {
      "inputs": [],
      "name": "totalAssets",
      "outputs": [
        {
          "internalType": "uint256",
          "name": "",
          "type": "uint256"
        }
      ],
      "stateMutability": "view",
      "type": "function"
    },
    {
      "inputs": [],
      "name": "totalSupply",
      "outputs": [
        {
          "internalType": "uint256",
          "name": "",
          "type": "uint256"
        }
      ],
      "stateMutability": "view",
      "type": "function"
    },
    {
      "inputs": [
        {
          "internalType": "address",
          "name": "to",
          "type": "address"
        },
        {
          "internalType": "uint256",
          "name": "amount",
          "type": "uint256"
        }
      ],
      "name": "transfer",
      "outputs": [
        {
          "internalType": "bool",
          "name": "",
          "type": "bool"
        }
      ],
      "stateMutability": "nonpayable",
      "type": "function"
    },
    {
      "inputs": [
        {
          "internalType": "address",
          "name": "from",
          "type": "address"
        },
        {
          "internalType": "address",
          "name": "to",
          "type": "address"
        },
        {
          "internalType": "uint256",
          "name": "amount",
          "type": "uint256"
        }
      ],
      "name": "transferFrom",
      "outputs": [
        {
          "internalType": "bool",
          "name": "",
          "type": "bool"
        }
      ],
      "stateMutability": "nonpayable",
      "type": "function"
    },
    {
      "inputs": [
        {
          "internalType": "uint256",
          "name": "shares",
          "type": "uint256"
        },
        {
          "internalType": "address",
          "name": "receiver",
          "type": "address"
        }
      ],
      "name": "withdraw",
      "outputs": [],
      "stateMutability": "nonpayable",
      "type": "function"
    }
  ],
  "bytecode": "0x6101006040523480156200001257600080fd5b5060405162002754380380620027548339818101604052810190620000389190620002b6565b8181600682600090805190602001906200005492919062000171565b5081600190805190602001906200006d92919062000171565b508060ff1660808160ff1660f81b815250504660a0818152505062000097620000e160201b60201c565b60c081815250505050508273ffffffffffffffffffffffffffffffffffffffff1660e08173ffffffffffffffffffffffffffffffffffffffff1660601b815250505050506200069e565b60007f8b73c3c69bb8fe3d512ecc4cf759cc79239f7b179b0ffacaa9a75d522b39400f60006040516200011591906200040e565b60405180910390207fc89efdaa54c0f20c7adf612882df0950f5a951637e0307cdcb4c672f298b8bc646306040516020016200015695949392919062000427565b60405160208183030381529060405280519060200120905090565b8280546200017f9062000595565b90600052602060002090601f016020900481019282620001a35760008555620001ef565b82601f10620001be57805160ff1916838001178555620001ef565b82800160010185558215620001ef579182015b82811115620001ee578251825591602001919060010190620001d1565b5b509050620001fe919062000202565b5090565b5b808211156200021d57600081600090555060010162000203565b5090565b6000620002386200023284620004ad565b62000484565b90508281526020810184848401111562000257576200025662000664565b5b620002648482856200055f565b509392505050565b6000815190506200027d8162000684565b92915050565b600082601f8301126200029b576200029a6200065f565b5b8151620002ad84826020860162000221565b91505092915050565b600080600060608486031215620002d257620002d16200066e565b5b6000620002e2868287016200026c565b935050602084015167ffffffffffffffff81111562000306576200030562000669565b5b620003148682870162000283565b925050604084015167ffffffffffffffff81111562000338576200033762000669565b5b620003468682870162000283565b9150509250925092565b6200035b8162000503565b82525050565b6200036c8162000517565b82525050565b60008154620003818162000595565b6200038d8186620004f8565b94506001821660008114620003ab5760018114620003bd57620003f4565b60ff19831686528186019350620003f4565b620003c885620004e3565b60005b83811015620003ec57815481890152600182019150602081019050620003cb565b838801955050505b50505092915050565b620004088162000555565b82525050565b60006200041c828462000372565b915081905092915050565b600060a0820190506200043e600083018862000361565b6200044d602083018762000361565b6200045c604083018662000361565b6200046b6060830185620003fd565b6200047a608083018462000350565b9695505050505050565b600062000490620004a3565b90506200049e8282620005cb565b919050565b6000604051905090565b600067ffffffffffffffff821115620004cb57620004ca62000630565b5b620004d68262000673565b9050602081019050919050565b60008190508160005260206000209050919050565b600081905092915050565b6000620005108262000535565b9050919050565b6000819050919050565b60006200052e8262000503565b9050919050565b600073ffffffffffffffffffffffffffffffffffffffff82169050919050565b6000819050919050565b60005b838110156200057f57808201518184015260208101905062000562565b838111156200058f576000848401525b50505050565b60006002820490506001821680620005ae57607f821691505b60208210811415620005c557620005c462000601565b5b50919050565b620005d68262000673565b810181811067ffffffffffffffff82111715620005f857620005f762000630565b5b80604052505050565b7f4e487b7100000000000000000000000000000000000000000000000000000000600052602260045260246000fd5b7f4e487b7100000000000000000000000000000000000000000000000000000000600052604160045260246000fd5b600080fd5b600080fd5b600080fd5b600080fd5b6000601f19601f8301169050919050565b6200068f8162000521565b81146200069b57600080fd5b50565b60805160f81c60a05160c05160e05160601c61205a620006fa6000396000818161035a0152818161040f0152818161090e01528181610b040152610bf3015260006108e7015260006108b30152600061088d015261205a6000f3fe608060405234801561001057600080fd5b50600436106100ff5760003560e01c806338d52e0f11610097578063a9059cbb11610066578063a9059cbb146102b2578063b6b55f25146102e2578063d505accf146102fe578063dd62ed3e1461031a576100ff565b806338d52e0f1461021657806370a08231146102345780637ecebe001461026457806395d89b4114610294576100ff565b806318160ddd116100d357806318160ddd1461018c57806323b872dd146101aa578063313ce567146101da5780633644e515146101f8576100ff565b8062f714ce1461010457806301e1d1141461012057806306fdde031461013e578063095ea7b31461015c575b600080fd5b61011e6004803603810190610119919061167e565b61034a565b005b61012861040b565b6040516101359190611bab565b60405180910390f35b6101466104bb565b6040516101539190611b09565b60405180910390f35b610176600480360381019061017191906115b7565b610549565b60405161018391906119bf565b60405180910390f35b61019461063b565b6040516101a19190611bab565b60405180910390f35b6101c460048036038101906101bf91906114c2565b610641565b6040516101d191906119bf565b60405180910390f35b6101e261088b565b6040516101ef9190611bc6565b60405180910390f35b6102006108af565b60405161020d91906119da565b60405180910390f35b61021e61090c565b60405161022b9190611aee565b60405180910390f35b61024e60048036038101906102499190611455565b610930565b60405161025b9190611bab565b60405180910390f35b61027e60048036038101906102799190611455565b610948565b60405161028b9190611bab565b60405180910390f35b61029c610960565b6040516102a99190611b09565b60405180910390f35b6102cc60048036038101906102c791906115b7565b6109ee565b6040516102d991906119bf565b60405180910390f35b6102fc60048036038101906102f79190611624565b610b02565b005b61031860048036038101906103139190611515565b610d3d565b005b610334600480360381019061032f9190611482565b611036565b6040516103419190611bab565b60405180910390f35b6000610356838361105b565b90507f000000000000000000000000000000000000000000000000000000000000000073ffffffffffffffffffffffffffffffffffffffff1663a9059cbb83836040518363ffffffff1660e01b81526004016103b392919061195f565b602060405180830381600087803b1580156103cd57600080fd5b505af11580156103e1573d6000803e3d6000fd5b505050506040513d601f19601f8201168201806040525081019061040591906115f7565b50505050565b60007f000000000000000000000000000000000000000000000000000000000000000073ffffffffffffffffffffffffffffffffffffffff166370a08231306040518263ffffffff1660e01b815260040161046691906118e4565b60206040518083038186803b15801561047e57600080fd5b505afa158015610492573d6000803e3d6000fd5b505050506040513d601f19601f820116820180604052508101906104b69190611651565b905090565b600080546104c890611e05565b80601f01602080910402602001604051908101604052809291908181526020018280546104f490611e05565b80156105415780601f1061051657610100808354040283529160200191610541565b820191906000526020600020905b81548152906001019060200180831161052457829003601f168201915b505050505081565b600081600460003373ffffffffffffffffffffffffffffffffffffffff1673ffffffffffffffffffffffffffffffffffffffff16815260200190815260200160002060008573ffffffffffffffffffffffffffffffffffffffff1673ffffffffffffffffffffffffffffffffffffffff168152602001908152602001600020819055508273ffffffffffffffffffffffffffffffffffffffff163373ffffffffffffffffffffffffffffffffffffffff167f8c5be1e5ebec7d5bd14f71427d1e84f3dd0314c0f7b2291e5b200ac8c7c3b925846040516106299190611bab565b60405180910390a36001905092915050565b60025481565b600080600460008673ffffffffffffffffffffffffffffffffffffffff1673ffffffffffffffffffffffffffffffffffffffff16815260200190815260200160002060003373ffffffffffffffffffffffffffffffffffffffff1673ffffffffffffffffffffffffffffffffffffffff1681526020019081526020016000205490507fffffffffffffffffffffffffffffffffffffffffffffffffffffffffffffffff81146107775782816106f69190611d09565b600460008773ffffffffffffffffffffffffffffffffffffffff1673ffffffffffffffffffffffffffffffffffffffff16815260200190815260200160002060003373ffffffffffffffffffffffffffffffffffffffff1673ffffffffffffffffffffffffffffffffffffffff168152602001908152602001600020819055505b82600360008773ffffffffffffffffffffffffffffffffffffffff1673ffffffffffffffffffffffffffffffffffffffff16815260200190815260200160002060008282546107c69190611d09565b9250508190555082600360008673ffffffffffffffffffffffffffffffffffffffff1673ffffffffffffffffffffffffffffffffffffffff168152602001908152602001600020600082825401925050819055508373ffffffffffffffffffffffffffffffffffffffff168573ffffffffffffffffffffffffffffffffffffffff167fddf252ad1be2c89b69c2b068fc378daa952ba7f163c4a11628f55a4df523b3ef856040516108779190611bab565b60405180910390a360019150509392505050565b7f000000000000000000000000000000000000000000000000000000000000000081565b60007f000000000000000000000000000000000000000000000000000000000000000046146108e5576108e06111ab565b610907565b7f00000000000000000000000000000000000000000000000000000000000000005b905090565b7f000000000000000000000000000000000000000000000000000000000000000081565b60036020528060005260406000206000915090505481565b60056020528060005260406000206000915090505481565b6001805461096d90611e05565b80601f016020809104026020016040519081016040528092919081815260200182805461099990611e05565b80156109e65780601f106109bb576101008083540402835291602001916109e6565b820191906000526020600020905b8154815290600101906020018083116109c957829003601f168201915b505050505081565b600081600360003373ffffffffffffffffffffffffffffffffffffffff1673ffffffffffffffffffffffffffffffffffffffff1681526020019081526020016000206000828254610a3f9190611d09565b9250508190555081600360008573ffffffffffffffffffffffffffffffffffffffff1673ffffffffffffffffffffffffffffffffffffffff168152602001908152602001600020600082825401925050819055508273ffffffffffffffffffffffffffffffffffffffff163373ffffffffffffffffffffffffffffffffffffffff167fddf252ad1be2c89b69c2b068fc378daa952ba7f163c4a11628f55a4df523b3ef84604051610af09190611bab565b60405180910390a36001905092915050565b7f000000000000000000000000000000000000000000000000000000000000000073ffffffffffffffffffffffffffffffffffffffff1663dd62ed3e33306040518363ffffffff1660e01b8152600401610b5d9291906118ff565b60206040518083038186803b158015610b7557600080fd5b505afa158015610b89573d6000803e3d6000fd5b505050506040513d601f19601f82011682018060405250810190610bad9190611651565b5060008111610bf1576040517f08c379a0000000000000000000000000000000000000000000000000000000008152600401610be890611b6b565b60405180910390fd5b7f000000000000000000000000000000000000000000000000000000000000000073ffffffffffffffffffffffffffffffffffffffff166323b872dd3330846040518463ffffffff1660e01b8152600401610c4e93929190611928565b602060405180830381600087803b158015610c6857600080fd5b505af1158015610c7c573d6000803e3d6000fd5b505050506040513d601f19601f82011682018060405250810190610ca091906115f7565b5080600660003373ffffffffffffffffffffffffffffffffffffffff1673ffffffffffffffffffffffffffffffffffffffff1681526020019081526020016000206000828254610cf09190611c28565b92505081905550610d013382611237565b7fe1fffcc4923d04b559f4d29a8bfc6cda04eb5b0d3c460751c2402c5c5cc9109c3382604051610d3292919061195f565b60405180910390a150565b42841015610d80576040517f08c379a0000000000000000000000000000000000000000000000000000000008152600401610d7790611b8b565b60405180910390fd5b60006001610d8c6108af565b7f6e71edae12b1b97f4d1f60370fef10105fa2faae0126114a169c64845d6126c98a8a8a600560008f73ffffffffffffffffffffffffffffffffffffffff1673ffffffffffffffffffffffffffffffffffffffff1681526020019081526020016000206000815480929190600101919050558b604051602001610e14969594939291906119f5565b60405160208183030381529060405280519060200120604051602001610e3b9291906118ad565b6040516020818303038152906040528051906020012085858560405160008152602001604052604051610e719493929190611aa9565b6020604051602081039080840390855afa158015610e93573d6000803e3d6000fd5b505050602060405103519050600073ffffffffffffffffffffffffffffffffffffffff168173ffffffffffffffffffffffffffffffffffffffff1614158015610f0757508773ffffffffffffffffffffffffffffffffffffffff168173ffffffffffffffffffffffffffffffffffffffff16145b610f46576040517f08c379a0000000000000000000000000000000000000000000000000000000008152600401610f3d90611b4b565b60405180910390fd5b85600460008373ffffffffffffffffffffffffffffffffffffffff1673ffffffffffffffffffffffffffffffffffffffff16815260200190815260200160002060008973ffffffffffffffffffffffffffffffffffffffff1673ffffffffffffffffffffffffffffffffffffffff16815260200190815260200160002081905550508573ffffffffffffffffffffffffffffffffffffffff168773ffffffffffffffffffffffffffffffffffffffff167f8c5be1e5ebec7d5bd14f71427d1e84f3dd0314c0f7b2291e5b200ac8c7c3b925876040516110259190611bab565b60405180910390a350505050505050565b6004602052816000526040600020602052806000526040600020600091509150505481565b600080600660003373ffffffffffffffffffffffffffffffffffffffff1673ffffffffffffffffffffffffffffffffffffffff16815260200190815260200160002054116110de576040517f08c379a00000000000000000000000000000000000000000000000000000000081526004016110d590611b2b565b60405180910390fd5b82600660003373ffffffffffffffffffffffffffffffffffffffff1673ffffffffffffffffffffffffffffffffffffffff168152602001908152602001600020600082825461112d9190611d09565b925050819055506000606484600a6111459190611caf565b61114f9190611c7e565b905061115b3385611307565b80846111679190611c28565b91507ff279e6a1f5e320cca91135676d9cb6e44ca8a08c0b88342bcdb1144f6511b56883838360405161119c93929190611988565b60405180910390a15092915050565b60007f8b73c3c69bb8fe3d512ecc4cf759cc79239f7b179b0ffacaa9a75d522b39400f60006040516111dd9190611896565b60405180910390207fc89efdaa54c0f20c7adf612882df0950f5a951637e0307cdcb4c672f298b8bc6463060405160200161121c959493929190611a56565b60405160208183030381529060405280519060200120905090565b80600260008282546112499190611c28565b9250508190555080600360008473ffffffffffffffffffffffffffffffffffffffff1673ffffffffffffffffffffffffffffffffffffffff168152602001908152602001600020600082825401925050819055508173ffffffffffffffffffffffffffffffffffffffff16600073ffffffffffffffffffffffffffffffffffffffff167fddf252ad1be2c89b69c2b068fc378daa952ba7f163c4a11628f55a4df523b3ef836040516112fb9190611bab565b60405180910390a35050565b80600360008473ffffffffffffffffffffffffffffffffffffffff1673ffffffffffffffffffffffffffffffffffffffff16815260200190815260200160002060008282546113569190611d09565b9250508190555080600260008282540392505081905550600073ffffffffffffffffffffffffffffffffffffffff168273ffffffffffffffffffffffffffffffffffffffff167fddf252ad1be2c89b69c2b068fc378daa952ba7f163c4a11628f55a4df523b3ef836040516113cb9190611bab565b60405180910390a35050565b6000813590506113e681611fb1565b92915050565b6000815190506113fb81611fc8565b92915050565b60008135905061141081611fdf565b92915050565b60008135905061142581611ff6565b92915050565b60008151905061143a81611ff6565b92915050565b60008135905061144f8161200d565b92915050565b60006020828403121561146b5761146a611ece565b5b6000611479848285016113d7565b91505092915050565b6000806040838503121561149957611498611ece565b5b60006114a7858286016113d7565b92505060206114b8858286016113d7565b9150509250929050565b6000806000606084860312156114db576114da611ece565b5b60006114e9868287016113d7565b93505060206114fa868287016113d7565b925050604061150b86828701611416565b9150509250925092565b600080600080600080600060e0888a03121561153457611533611ece565b5b60006115428a828b016113d7565b97505060206115538a828b016113d7565b96505060406115648a828b01611416565b95505060606115758a828b01611416565b94505060806115868a828b01611440565b93505060a06115978a828b01611401565b92505060c06115a88a828b01611401565b91505092959891949750929550565b600080604083850312156115ce576115cd611ece565b5b60006115dc858286016113d7565b92505060206115ed85828601611416565b9150509250929050565b60006020828403121561160d5761160c611ece565b5b600061161b848285016113ec565b91505092915050565b60006020828403121561163a57611639611ece565b5b600061164884828501611416565b91505092915050565b60006020828403121561166757611666611ece565b5b60006116758482850161142b565b91505092915050565b6000806040838503121561169557611694611ece565b5b60006116a385828601611416565b92505060206116b4858286016113d7565b9150509250929050565b6116c781611d3d565b82525050565b6116d681611d4f565b82525050565b6116e581611d5b565b82525050565b6116fc6116f782611d5b565b611e37565b82525050565b6000815461170f81611e05565b6117198186611c01565b94506001821660008114611734576001811461174557611778565b60ff19831686528186019350611778565b61174e85611be1565b60005b8381101561177057815481890152600182019150602081019050611751565b838801955050505b50505092915050565b61178a81611d9c565b82525050565b600061179b82611bf6565b6117a58185611c0c565b93506117b5818560208601611dd2565b6117be81611ed3565b840191505092915050565b60006117d6600283611c1d565b91506117e182611ee4565b600282019050919050565b60006117f9601283611c0c565b915061180482611f0d565b602082019050919050565b600061181c600e83611c0c565b915061182782611f36565b602082019050919050565b600061183f601683611c0c565b915061184a82611f5f565b602082019050919050565b6000611862601783611c0c565b915061186d82611f88565b602082019050919050565b61188181611d85565b82525050565b61189081611d8f565b82525050565b60006118a28284611702565b915081905092915050565b60006118b8826117c9565b91506118c482856116eb565b6020820191506118d482846116eb565b6020820191508190509392505050565b60006020820190506118f960008301846116be565b92915050565b600060408201905061191460008301856116be565b61192160208301846116be565b9392505050565b600060608201905061193d60008301866116be565b61194a60208301856116be565b6119576040830184611878565b949350505050565b600060408201905061197460008301856116be565b6119816020830184611878565b9392505050565b600060608201905061199d60008301866116be565b6119aa6020830185611878565b6119b76040830184611878565b949350505050565b60006020820190506119d460008301846116cd565b92915050565b60006020820190506119ef60008301846116dc565b92915050565b600060c082019050611a0a60008301896116dc565b611a1760208301886116be565b611a2460408301876116be565b611a316060830186611878565b611a3e6080830185611878565b611a4b60a0830184611878565b979650505050505050565b600060a082019050611a6b60008301886116dc565b611a7860208301876116dc565b611a8560408301866116dc565b611a926060830185611878565b611a9f60808301846116be565b9695505050505050565b6000608082019050611abe60008301876116dc565b611acb6020830186611887565b611ad860408301856116dc565b611ae560608301846116dc565b95945050505050565b6000602082019050611b036000830184611781565b92915050565b60006020820190508181036000830152611b238184611790565b905092915050565b60006020820190508181036000830152611b44816117ec565b9050919050565b60006020820190508181036000830152611b648161180f565b9050919050565b60006020820190508181036000830152611b8481611832565b9050919050565b60006020820190508181036000830152611ba481611855565b9050919050565b6000602082019050611bc06000830184611878565b92915050565b6000602082019050611bdb6000830184611887565b92915050565b60008190508160005260206000209050919050565b600081519050919050565b600081905092915050565b600082825260208201905092915050565b600081905092915050565b6000611c3382611d85565b9150611c3e83611d85565b9250827fffffffffffffffffffffffffffffffffffffffffffffffffffffffffffffffff03821115611c7357611c72611e41565b5b828201905092915050565b6000611c8982611d85565b9150611c9483611d85565b925082611ca457611ca3611e70565b5b828204905092915050565b6000611cba82611d85565b9150611cc583611d85565b9250817fffffffffffffffffffffffffffffffffffffffffffffffffffffffffffffffff0483118215151615611cfe57611cfd611e41565b5b828202905092915050565b6000611d1482611d85565b9150611d1f83611d85565b925082821015611d3257611d31611e41565b5b828203905092915050565b6000611d4882611d65565b9050919050565b60008115159050919050565b6000819050919050565b600073ffffffffffffffffffffffffffffffffffffffff82169050919050565b6000819050919050565b600060ff82169050919050565b6000611da782611dae565b9050919050565b6000611db982611dc0565b9050919050565b6000611dcb82611d65565b9050919050565b60005b83811015611df0578082015181840152602081019050611dd5565b83811115611dff576000848401525b50505050565b60006002820490506001821680611e1d57607f821691505b60208210811415611e3157611e30611e9f565b5b50919050565b6000819050919050565b7f4e487b7100000000000000000000000000000000000000000000000000000000600052601160045260246000fd5b7f4e487b7100000000000000000000000000000000000000000000000000000000600052601260045260246000fd5b7f4e487b7100000000000000000000000000000000000000000000000000000000600052602260045260246000fd5b600080fd5b6000601f19601f8301169050919050565b7f1901000000000000000000000000000000000000000000000000000000000000600082015250565b7f4e6f74206120736861726520686f6c6465720000000000000000000000000000600082015250565b7f494e56414c49445f5349474e4552000000000000000000000000000000000000600082015250565b7f4465706f736974206c657373207468616e205a65726f00000000000000000000600082015250565b7f5045524d49545f444541444c494e455f45585049524544000000000000000000600082015250565b611fba81611d3d565b8114611fc557600080fd5b50565b611fd181611d4f565b8114611fdc57600080fd5b50565b611fe881611d5b565b8114611ff357600080fd5b50565b611fff81611d85565b811461200a57600080fd5b50565b61201681611d8f565b811461202157600080fd5b5056fea26469706673582212207df6a9bb7aa821a661635262ebdf82cc3b2827ce21e7c0d578c3e633e395858a64736f6c63430008070033",
  "linkReferences": {},
  "deployedLinkReferences": {}
}